:100000000C942A000C94AC150C94D9150C94470050
:100010000C9447000C9447000C948C130C9490277C
:100020000C9447000C9447000C9447000C94470034
:100030000C9447000C9447000C9447000C94470024
:100040000C9447000C9447000C9447000C94470014
:100050000C94470011241FBECFE5D8E0DEBFCDBF12
:1000600011E0A0E6B0E0E2E4F7E602C005900D92F0
:10007000A030B107D9F714E0A0E0B1E001C01D92B3
:10008000A433B107E1F70E94FF320C949F330C9424
:100090000000EF92FF920F931F937B018C0120E0F1
:1000A00030E040E05FE40E94490388238CF0C801FF
:1000B000B70120E030E040E05FE40E94C1010E940F
:1000C000A9039B01AC01205030404040504806C07D
:1000D000C801B7010E94A9039B01AC01B901CA0183
:1000E0001F910F91FF90EF900895A0E0B0E0EBE733
:1000F000F0E00C944933DC012B01FA019C91923021
:1001000008F439C1EB018881823008F433C194309E
:1001100069F4843009F02FC111969C91119789815F
:10012000981709F428C1ADEDB0E025C1843009F479
:1001300021C18230A9F4923009F01DC19A01AD01AC
:1001400088E0EA010990AE01E90109929E0181501F
:10015000C1F7E201898111969C918923818308C1AD
:10016000923009F407C112962D903C901397EB0141
:100170008A819B811496AD90BD90CD90DC901797AD
:10018000EC80FD800E811F819101281B390BB90184
:1001900037FF04C066277727621B730B6032710537
:1001A0000CF061C0121613066CF537014801062EDB
:1001B00004C096948794779467940A94D2F721E0C8
:1001C00030E040E050E004C0220F331F441F551FB1
:1001D0006A95D2F721503040404050402E213F21B7
:1001E00040235123211531054105510521F021E01E
:1001F00030E040E050E079018A01E628F72808293C
:1002000019293CC0232BD1F1260E371E350146019A
:10021000062E04C096948794779467940A94D2F734
:1002200021E030E040E050E004C0220F331F441FC3
:10023000551F6A95D2F721503040404050402A2146
:100240003B214C215D21211531054105510521F04E
:1002500021E030E040E050E059016A01A628B728CB
:10026000C828D9280BC0821593052CF01C01AA249C
:10027000BB24650103C0EE24FF24870111969C91E5
:10028000D20111968C91981709F445C0992339F041
:10029000A80197012A193B094C095D0906C0A6016E
:1002A00095012E193F09400B510B57FD08C01182D3
:1002B0003382228224833583468357831DC081E0A5
:1002C00081833382228288279927DC01821B930B4A
:1002D000A40BB50B84839583A683B7830DC0220F2F
:1002E000331F441F551F24833583468357838281E0
:1002F000938101979383828324813581468157813D
:10030000DA01C9010197A109B1098F5F9F4FAF4F72
:10031000BF4328F30BC0918333822282EA0CFB1C7B
:100320000C1D1D1DE482F5820683178383E0808304
:10033000248135814681578157FF1AC0C901AA27F8
:1003400097FDA095BA2F81709070A070B0705695EF
:10035000479537952795822B932BA42BB52B848318
:100360009583A683B7838281938101969383828349
:10037000DF0101C0D201CD01CDB7DEB7E2E10C94BF
:100380006533A0E2B0E0E7ECF1E00C94553369830B
:100390007A838B839C832D833E834F835887E9E048
:1003A000EE2EF12CEC0EFD1ECE010196B7010E943F
:1003B000D2048E010F5E1F4FCE010596B8010E9438
:1003C000D2048A8991E089278A8BC701B801AE01DE
:1003D000475E5F4F0E9475000E94FD03A096E6E015
:1003E0000C947133A0E2B0E0E8EFF1E00C945533E7
:1003F00069837A838B839C832D833E834F835887C5
:10040000F9E0EF2EF12CEC0EFD1ECE010196B701A6
:100410000E94D2048E010F5E1F4FCE010596B801D7
:100420000E94D204C701B801AE01475E5F4F0E942F
:1004300075000E94FD03A096E6E00C947133A0E2E3
:10044000B0E0E5E2F2E00C94493369837A838B8370
:100450009C832D833E834F835887CE010196BE0136
:10046000675F7F4F0E94D204CE010596BE016F5E8A
:100470007F4F0E94D2049985923088F0898982301A
:10048000C8F0943019F4823051F404C0843029F457
:10049000923081F48DED90E0C6C0923049F420E0B6
:1004A0009A858A89981321E02A87CE010996BBC0D4
:1004B000823049F420E09A858A89981321E02A8BBA
:1004C000CE014196B0C02D843E844F8458886D88FB
:1004D0007E888F88988CEE24FF248701AA24BB2471
:1004E000650140E050E060E070E0E0E0F0E0C10174
:1004F00081709070892BE9F0E60CF71C081D191D1E
:100500009A01AB012A0D3B1D4C1D5D1D80E090E062
:10051000A0E0B0E0E614F7040805190520F481E036
:1005200090E0A0E0B0E0BA01A901480F591F6A1F8E
:100530007B1FAA0CBB1CCC1CDD1C97FE08C081E0F5
:1005400090E0A0E0B0E0A82AB92ACA2ADB2A3196B6
:10055000E032F10549F0660C771C881C991C569412
:10056000479437942794C3CFFA85EA892B893C892D
:100570008B859C85280F391F2E5F3F4F17C0CA01FE
:1005800081709070892B61F016950795F794E79428
:1005900080E090E0A0E0B0E8E82AF92A0A2B1B2BC3
:1005A00076956795579547952F5F3F4F77FDE7CF36
:1005B0000CC0440F551F661F771F17FD4160EE0CDE
:1005C000FF1C001F111F21503040403090E05907A0
:1005D00090E0690790E4790760F32B8F3C8FDB0193
:1005E000CA018F779070A070B07080349105A1051A
:1005F000B10561F447FD0AC0E114F10401051105DC
:1006000029F0405C5F4F6F4F7F4F40781A8EFE1786
:1006100011F081E08A8F4D8F5E8F6F8F78A383E01A
:10062000898FCE0149960E94FD03A096E2E10C94C9
:100630006533A8E1B0E0EFE1F3E00C945533698352
:100640007A838B839C832D833E834F83588789E0F5
:10065000E82EF12CEC0EFD1ECE010196B7010E9492
:10066000D2048E010F5E1F4FCE010596B8010E9485
:10067000D2048985823040F08989823028F0C70110
:10068000B8010E944A0501C08FEF6896E6E00C941D
:100690007133A8E1B0E0EFE4F3E00C9455336983E3
:1006A0007A838B839C832D833E834F83588789E095
:1006B000E82EF12CEC0EFD1ECE010196B7010E9432
:1006C000D2048E010F5E1F4FCE010596B8010E9425
:1006D000D2048985823040F08989823028F0C701B0
:1006E000B8010E944A0501C08FEF6896E6E00C94BD
:1006F0007133A8E1B0E0EFE7F3E00C945533698380
:100700007A838B839C832D833E834F83588789E034
:10071000E82EF12CEC0EFD1ECE010196B7010E94D1
:10072000D2048E010F5E1F4FCE010596B8010E94C4
:10073000D2048985823040F08989823028F0C7014F
:10074000B8010E944A0501C081E06896E6E00C9479
:100750007133ACE0B0E0EFEAF3E00C945933698315
:100760007A838B839C83CE010196BE016B5F7F4FA2
:100770000E94D2048D81823061F1823050F1843048
:1007800021F48E81882351F12EC02F81388537FDC9
:1007900020C06E812F3131051CF06623F9F023C093
:1007A0008EE190E0821B930B29853A854B855C8511
:1007B00004C056954795379527958A95D2F76623B5
:1007C000B1F050954095309521953F4F4F4F5F4F79
:1007D0000EC020E030E040E050E009C02FEF3FEFD6
:1007E0004FEF5FE704C020E030E040E050E8B9019F
:1007F000CA012C96E2E00C947533DF92EF92FF92DF
:100800000F931F93FC01E480F58006811781D1804E
:100810008081823048F480E090E0A0E1B0E0E82AF6
:10082000F92A0A2B1B2BA5C0843009F49FC0823003
:1008300021F4EE24FF24870105C0E114F104010531
:10084000110519F4E0E0F0E096C0628173819FEF3A
:10085000623879070CF05BC022E83FEF261B370BAC
:100860002A3131052CF020E030E040E050E02AC091
:10087000B801A701022E04C0769567955795479554
:100880000A94D2F781E090E0A0E0B0E004C0880FC5
:10089000991FAA1FBB1F2A95D2F70197A109B10979
:1008A0008E219F21A023B1230097A105B10521F03E
:1008B00081E090E0A0E0B0E09A01AB01282B392B59
:1008C0004A2B5B2BDA01C9018F779070A070B07052
:1008D00080349105A105B10539F427FF09C0205CDA
:1008E0003F4F4F4F5F4F04C0215C3F4F4F4F5F4F13
:1008F000E0E0F0E02030A0E03A07A0E04A07A0E402
:100900005A0710F0E1E0F0E079018A0127C0603871
:10091000710564F5FB01E158FF4FD801C7018F77DE
:100920009070A070B07080349105A105B10539F4C4
:10093000E7FE0DC080E490E0A0E0B0E004C08FE3EB
:1009400090E0A0E0B0E0E80EF91E0A1F1B1F17FFA1
:1009500005C016950795F794E794319687E01695AC
:100960000795F794E7948A95D1F705C0EE24FF2404
:100970008701EFEFF0E06E2F679566276795902F60
:100980009F77D794DD24D7948E2F8695492F462BB9
:10099000582F5D29B701CA011F910F91FF90EF9069
:1009A000DF900895FC01DB01408151812281622F9B
:1009B0006F7770E0221F2227221F9381892F880FD3
:1009C000822B282F30E0991F9927991F11969C930D
:1009D000119721153105A9F54115510561057105DD
:1009E00011F482E037C082E89FEF13969C938E93B8
:1009F00012979A01AB0167E0220F331F441F551F66
:100A00006A95D1F783E08C930DC0220F331F441FEA
:100A1000551F12968D919C911397019713969C9355
:100A20008E931297203080E0380780E0480780E4FA
:100A3000580758F314962D933D934D935C93179755
:100A400008952F3F310579F4411551056105710570
:100A500019F484E08C93089564FF03C081E08C93C3
:100A600012C01C9210C02F57304013963C932E9307
:100A7000129783E08C9387E0440F551F661F771F02
:100A80008A95D1F7706414964D935D936D937C9322
:100A9000179708951F93DC01FB019C91923008F495
:100AA00047C08081823008F443C0943051F41196DD
:100AB0001C91843099F58181682F70E0611B710968
:100AC0003FC0843021F0923031F48230B9F181811D
:100AD000882389F12DC011961C9111978230F1F075
:100AE00081811817D9F412962D913C911397828128
:100AF00093818217930794F028173907BCF0149656
:100B00008D919D910D90BC91A02D248135814681C0
:100B10005781281739074A075B0718F4112341F05A
:100B20000AC082179307A407B50740F4112319F0F0
:100B300061E070E005C06FEF7FEF02C060E070E041
:100B4000CB011F910895AF92BF92CF92DF92EF92A7
:100B5000FF920F93DF93CF93CDB7DEB70E940A1CAD
:100B60008EED95E060E070E045E550E020E030E09B
:100B700003E0EE24FF24CC24DD24AA24BB240E941D
:100B8000142C81EF95E060E070E045E550E020E056
:100B900030E004E0EE24FF24CC24DD24AA24BB248E
:100BA0000E94142C0E940D2ECF91DF910F91FF9087
:100BB000EF90DF90CF90BF90AF900895DF93CF93E9
:100BC00000D0CDB7DEB79A83898381E00E94EA190D
:100BD00080E690E00E94121D88EB9BE00E94D82DD9
:100BE000F4CFDF93CF9300D0CDB7DEB79A8389835C
:100BF00081E00E94EA198CE690E00E94121D88EBC9
:100C00009BE00E94D82DF4CFAF92BF92CF92DF929B
:100C1000EF92FF920F93DF93CF93CDB7DEB70E9491
:100C20000A1C81E060E00E94932790930101809369
:100C300000018091000190910101009759F080918D
:100C400000019091010160E070E040E050E020E0A0
:100C50000E943C2888E596E060E070E045E550E0C1
:100C600020E030E003E0EE24FF24CC24DD24AA249D
:100C7000BB240E94142C83E896E060E070E045E518
:100C800050E020E030E003E0EE24FF24CC24DD241B
:100C9000AA24BB240E94142C0E940D2ECF91DF9118
:100CA0000F91FF90EF90DF90CF90BF90AF9008959D
:100CB000DF93CF9300D0CDB7DEB79A83898380913D
:100CC00000019091010160E070E044EF51E020E00C
:100CD0000E942729813099F781E00E94EA1988E76C
:100CE00090E00E94121D80EB94E00E94D82D80912C
:100CF00000019091010160E070E040E050E020E0F0
:100D00000E943C28DCCFDF93CF9300D0CDB7DEB775
:100D10009A838983809100019091010160E070E0E5
:100D20004AE050E020E00E942729813099F781E0D5
:100D30000E94EA1984E890E00E94121D80E293E08C
:100D40000E94D82D809100019091010160E070E037
:100D500040E050E020E00E943C28DCCFDF93CF93BE
:100D6000CDB7DEB780E060E041E00E94BA1680E0D7
:100D700061E041E00E94BA1680E060E041E00E943C
:100D8000FF1780E061E041E00E94FF17CF91DF9103
:100D90000895AF92BF92CF92DF92EF92FF920F939E
:100DA000DF93CF93CDB7DEB70E94AE0684E097E025
:100DB00060E070E046E450E020E030E002E0EE2445
:100DC000FF24CC24DD24AA24BB240E94142C8BE114
:100DD00097E060E070E046E450E020E030E002E0C0
:100DE000EE24FF24CC24DD24AA24BB240E94142C4E
:100DF0000E940D2ECF91DF910F91FF90EF90DF9029
:100E0000CF90BF90AF900895DF93CF9300D0CDB730
:100E1000DEB79A83898380E060E00E94031991E045
:100E2000982780E060E0492F0E94FF1788EC90E04F
:100E30000E94D82DF0CFDF93CF9300D0CDB7DEB78F
:100E40009A83898380E061E00E94031991E09827EA
:100E500080E061E0492F0E94FF1788EE93E00E9436
:100E6000D82DF0CFAF92BF92CF92DF92EF92FF9248
:100E70000F93DF93CF93CDB7DEB70E940A1C0E9479
:100E8000F81E81E061E00E949327909331048093E3
:100E9000300487E797E060E070E045E550E020E04F
:100EA00030E003E0EE24FF24CC24DD24AA24BB247C
:100EB0000E94142C85EA97E060E070E045E550E080
:100EC00020E030E003E0EE24FF24CC24DD24AA243B
:100ED000BB240E94142C0E940D2ECF91DF910F9104
:100EE000FF90EF90DF90CF90BF90AF900895DF9389
:100EF000CF9300D000D0CDB7DEB79C838B838FEF2C
:100F00008A8319821AC080913004909131049E0125
:100F10002E5F3F4FB9014FEF50E020E00E9427299C
:100F20008A818F3F39F08A810E94FA1A88EE93E015
:100F30000E94D82D89818F5F89838981863018F33B
:100F400081E00E94EA191982F8CFDF93CF9300D095
:100F50000F92CDB7DEB79B838A830E942B1F8983B4
:100F60008981803380F089818A3368F480913004EC
:100F7000909131049E012F5F3F4FB9014FEF50E038
:100F800020E00E943C2882E390E00E94D82DE5CF2B
:100F9000DF93CF93CDB7DEB783E063E040E00E94FC
:100FA000BA1683E063E041E00E94FF170E94221618
:100FB0000E94061688E798E00E946616CF91DF919E
:100FC0000895AF92BF92CF92DF92EF92FF920F936C
:100FD000DF93CF93CDB7DEB70E94C8070E940A1CEB
:100FE00081E060E00E9493279093030180930201C7
:100FF0008091020190910301009759F080910201C4
:101000009091030160E070E040E050E020E00E9439
:101010003C2885E598E060E070E046E450E020E0A0
:1010200030E002E0EE24FF24CC24DD24AA24BB24FB
:101030000E94142C88E398E0E2E3F4E060E070E0C2
:1010400046E450E020E030E003E07F01CC24DD24E2
:10105000AA24BB240E94142C0E940D2ECF91DF9154
:101060000F91FF90EF90DF90CF90BF90AF900895D9
:10107000DF93CF9300D0CDB7DEB79A838983809179
:1010800002019091030160E070E04AE050E020E04E
:101090000E94272980913204909133040E94012DEF
:1010A0000F900F90CF91DF910895DF93CF9300D0F1
:1010B000CDB7DEB79A8389838091020190910301B5
:1010C00060E070E04AE050E020E00E942729813093
:1010D00099F781E00E94EA1980E990E00E94121DD0
:1010E00084EF91E00E94D82D81E00E94EA19E4CFBC
:1010F000DF93CF93CDB7DEB78091020190910301CA
:1011000060E070E040E050E020E00E94DA28CF91FB
:10111000DF910895DF93CF93CDB7DEB780910401BF
:101120008823A1F40E94C112A5E5B0E0E5E5F0E056
:1011300080818E7F8C93A5E5B0E0E5E5F0E08081CD
:1011400082608C9381E0809304012BC08091040124
:101150008130D1F40E941013909306018093050111
:101160000E94C112A5E5B0E0E5E5F0E080818D7F49
:101170008C93A5E5B0E0E5E5F0E0808181608C939B
:1011800082E0809304010DC080910401823049F413
:101190000E941013909308018093070183E08093CD
:1011A0000401CF91DF910895DF93CF930F92CDB7D4
:1011B000DEB70E940A1C80E090E060E070E00E94D0
:1011C0003B1D82EA90E00E94121D80E090E06DE0FD
:1011D00070E00E943B1D8AEA90E00E94121D81E0AF
:1011E00090E061E070E00E943B1D8DEA90E00E947B
:1011F000121D81E090E06DE070E00E943B1D85EBE8
:1012000090E00E94121D81E063E041E00E94BA1666
:101210000E947B128FE7898389810E94B31283E049
:1012200062E040E00E94BA160E9490158AE898E0B9
:101230000E9453160E940616809104018330E1F744
:1012400020910501309106018091070190910801DC
:10125000820F931F90930A01809309012091050149
:101260003091060184E690E0289FA001299F500D4F
:10127000389F500D11242091050130910601809175
:10128000070190910801280F391FCA01B9010E9476
:101290003533CB0190930C0180930B0180E090E0FB
:1012A00068E070E00E943B1D8091090190910A0165
:1012B0000E94751D81E090E068E070E00E943B1D97
:1012C00080910B0190910C010E94751DFFCFDF935F
:1012D000CF9300D000D00F92CDB7DEB780E060E0B2
:1012E00040E00E94BA1683E06FEF0E9479160E94D8
:1012F0007D190E940A1C80E00E94B5198D838D81A2
:10130000882F90E0A0E0B0E028E833E140E050E032
:10131000BC01CD010E940A33DC01CB01892F9A2F39
:10132000AB2FBB279C838B838B819C812AE030E091
:10133000B9010E943533CB010E94FA1A87EB90E085
:101340000E94121D1A82198289819A8101969A83BC
:101350008983FACFDF93CF93CDB7DEB72E970FB641
:10136000F894DEBF0FBECDBF80E060E041E00E9498
:10137000FF1780E090E0AAE7B4E48B879C87AD87F5
:10138000BE876B857C858D859E8520E030E04AEFA9
:1013900054E40E941F02DC01CB018F839887A98748
:1013A000BA876F81788589859A8520E030E040E8AA
:1013B0005FE30E94790388232CF481E090E09E8310
:1013C0008D833FC06F81788589859A8520E03FEFC6
:1013D0004FE757E40E94190318164CF56B857C857E
:1013E0008D859E8520E030E040E251E40E941F029E
:1013F000DC01CB01BC01CD010E944900DC01CB0125
:101400009E838D830FC088EC90E09C838B838B81BF
:101410009C810197F1F79C838B838D819E8101973D
:101420009E838D838D819E81009769F714C06F81A3
:10143000788589859A850E944900DC01CB019E83CD
:101440008D838D819E819A83898389819A81019779
:10145000F1F79A83898380E060E040E00E94FF1703
:101460002E960FB6F894DEBF0FBECDBFCF91DF91A1
:101470000895DF93CF93CDB7DEB72E970FB6F894CC
:10148000DEBF0FBECDBF80E061E041E00E94FF17EC
:1014900080E090E0AAE7B4E48B879C87AD87BE87A5
:1014A0006B857C858D859E8520E030E04AEF54E495
:1014B0000E941F02DC01CB018F839887A987BA871E
:1014C0006F81788589859A8520E030E040E85FE388
:1014D0000E94790388232CF481E090E09E838D8321
:1014E0003FC06F81788589859A8520E03FEF4FE77F
:1014F00057E40E94190318164CF56B857C858D8581
:101500009E8520E030E040E251E40E941F02DC01B1
:10151000CB01BC01CD010E944900DC01CB019E83BF
:101520008D830FC088EC90E09C838B838B819C81A2
:101530000197F1F79C838B838D819E8101979E8318
:101540008D838D819E81009769F714C06F817885A6
:1015500089859A850E944900DC01CB019E838D8399
:101560008D819E819A83898389819A810197F1F780
:101570009A83898380E061E040E00E94FF172E9605
:101580000FB6F894DEBF0FBECDBFCF91DF910895A7
:10159000DF93CF93CDB7DEB783E062E040E00E94F7
:1015A000BA1683E062E041E00E94FF1780E061E04C
:1015B00041E00E94BA1683E063E040E00E94BA1660
:1015C00083E063E041E00E94FF1780E060E041E0DB
:1015D0000E94BA160E9490150E9422160E940616BA
:1015E0008AEA99E00E94531689E39AE00E946616FF
:1015F000FFCFDF93CF93CDB7DEB70E94F31F89EB08
:1016000090E00E94FD1F0E942520CF91DF91089558
:10161000DF93CF93CDB7DEB76D970FB6F894DEBFEB
:101620000FBECDBF0E940A1C0E94F81E1D8E80E0D6
:1016300090E060E070E00E943B1D8BEB90E00E9428
:10164000121D80E090E0AAE7B4E4898F9A8FAB8FF7
:10165000BC8F698D7A8D8B8D9C8D20E030E04AEFB8
:1016600054E40E941F02DC01CB018D8B9E8BAF8B5B
:10167000B88F6D897E898F89988D20E030E040E8B1
:101680005FE30E94790388232CF481E090E09C8B37
:101690008B8B3FC06D897E898F89988D20E03FEFCD
:1016A0004FE757E40E94190318164CF5698D7A8D9F
:1016B0008B8D9C8D20E030E040E251E40E941F02BF
:1016C000DC01CB01BC01CD010E944900DC01CB0152
:1016D0009C8B8B8B0FC088EC90E09A8B898B8989CF
:1016E0009A890197F1F79A8B898B8B899C8901974D
:1016F0009C8B8B8B8B899C89009769F714C06D89B3
:101700007E898F89988D0E944900DC01CB019C8BDA
:101710008B8B8B899C89988B8F878F859889019774
:10172000F1F7988B8F8781E00E94EA190E942B1FA6
:101730008D8F8D8D8823D1F380E090E060E070E0A4
:101740000E943B1D88EC90E00E94121D81E090E019
:1017500066E070E00E943B1D8D8D0E94FA1A80E0C9
:1017600090E0AAEFB4E48B879C87AD87BE876B853A
:101770007C858D859E8520E030E04AEF54E40E9410
:101780001F02DC01CB018F839887A987BA876F81FD
:10179000788589859A8520E030E040E85FE30E9403
:1017A000790388232CF481E090E09E838D833FC0F1
:1017B0006F81788589859A8520E03FEF4FE757E470
:1017C0000E94190318164CF56B857C858D859E85C6
:1017D00020E030E040E251E40E941F02DC01CB0136
:1017E000BC01CD010E944900DC01CB019E838D83A9
:1017F0000FC088EC90E09C838B838B819C81019748
:10180000F1F79C838B838D819E8101979E838D83CD
:101810008D819E81009769F714C06F8178858985D5
:101820009A850E944900DC01CB019E838D838D81C6
:101830009E819A83898389819A810197F1F79A839E
:10184000898381E00E94EA191D8EF1CEDF93CF9348
:101850000F92CDB7DEB780910D0190910E010196E8
:1018600090930E0180930D0180910D0190910E01D6
:101870008D37910589F481E060E00E940319898326
:10188000998181E0982781E060E0492F0E94FF174D
:1018900010920E0110920D010F90CF91DF910895DB
:1018A000DF93CF93CDB7DEB781E060E041E00E94E7
:1018B000BA1681E060E041E00E94FF170E947B12AF
:1018C00086E29CE00E9460130E940616FFCFDF9321
:1018D000CF93CDB7DEB761970FB6F894DEBF0FBEDA
:1018E000CDBF81E065E04FEF0E94BA1681E066E06F
:1018F00040E00E94BA1681E067E041E00E94BA161B
:1019000081E064E041E00E94BA1681E064E041E0D9
:101910000E94FF1780E060E041E00E94BA160E943A
:101920009C1381E064E040E00E94FF17188A1F8644
:101930007AC08F85805D0E94DB13888B80E090E009
:10194000AAE7B4E48B879C87AD87BE876B857C85CF
:101950008D859E8520E030E04AEF54E40E941F020E
:10196000DC01CB018F839887A987BA876F8178853F
:1019700089859A8520E030E040E85FE30E947903A2
:1019800088232CF481E090E09E838D833FC06F819B
:10199000788589859A8520E03FEF4FE757E40E94DC
:1019A000190318164CF56B857C858D859E8520E086
:1019B00030E040E251E40E941F02DC01CB01BC0197
:1019C000CD010E944900DC01CB019E838D830FC0B5
:1019D00088EC90E09C838B838B819C810197F1F74D
:1019E0009C838B838D819E8101979E838D838D81C6
:1019F0009E81009769F714C06F81788589859A85E3
:101A00000E944900DC01CB019E838D838D819E81E4
:101A10009A83898389819A810197F1F79A838983CF
:101A20008F858F5F8F878F858A3008F482CF888972
:101A3000813429F480E060E041E00E94FF17FFCF8D
:101A4000DF93CF930F92CDB7DEB783E060E040E045
:101A50000E94BA1683E061E041E00E94BA1680E07D
:101A600060E041E00E94BA160E9419120E946C12B6
:101A700089838981813331F480E060E041E00E9414
:101A8000FF1708C08981823329F480E060E040E0DC
:101A90000E94FF1784E490E00E945212E7CFDF9388
:101AA000CF93CDB7DEB72E970FB6F894DEBF0FBE3B
:101AB000CDBF80E060E041E00E94BA1680E060E0C7
:101AC00041E00E94FF1780E090E0AAE7B4E48B8732
:101AD0009C87AD87BE876B857C858D859E8520E044
:101AE00030E04AEF54E40E941F02DC01CB018F83F7
:101AF0009887A987BA876F81788589859A8520E03C
:101B000030E040E85FE30E94790388232CF481E011
:101B100090E09E838D833FC06F81788589859A850B
:101B200020E03FEF4FE757E40E94190318164CF5E9
:101B30006B857C858D859E8520E030E040E251E418
:101B40000E941F02DC01CB01BC01CD010E944900B3
:101B5000DC01CB019E838D830FC088EC90E09C83D9
:101B60008B838B819C810197F1F79C838B838D8183
:101B70009E8101979E838D838D819E81009769F759
:101B800014C06F81788589859A850E944900DC019F
:101B9000CB019E838D838D819E819A8389838981E8
:101BA0009A810197F1F79A83898380E060E040E0B1
:101BB0000E94FF170E94DD1186E00E940012FFCFF5
:101BC000DF93CF93CDB7DEB7C854D0400FB6F894AB
:101BD000DEBF0FBECDBF1BAE8BAD6FEF0E9479167F
:101BE0008BAD60E00E94BE17CE01CC9626969FAFCB
:101BF0008EAF2697E7EFF0E02896FFAFEEAF28977D
:101C0000F8E02996FFAF29972896EEADFFAD28970B
:101C1000008028968EAD9FAD2897019628969FAF9D
:101C20008EAF28972696EEADFFAD269700822696BA
:101C30008EAD9FAD2697019626969FAF8EAF2697C5
:101C400029969FAD2997915029969FAF299729965C
:101C5000EFAD2997EE23C1F61AAE84C08AAD282FC6
:101C6000332727FD3095CE01CC96FC01E20FF31F00
:101C700090818BAD692F0E94BE1780E090E0AAE7AB
:101C8000B4E48DAB9EABAFABB8AF6DA97EA98FA905
:101C900098AD20E030E04AEF54E40E941F02DC01DE
:101CA000CB0189AB9AABABABBCAB69A97AA98BA9C9
:101CB0009CA920E030E040E85FE30E94790388239C
:101CC0002CF481E090E098AB8FA73FC069A97AA976
:101CD0008BA99CA920E03FEF4FE757E40E9419032E
:101CE00018164CF56DA97EA98FA998AD20E030E0BB
:101CF00040E251E40E941F02DC01CB01BC01CD0196
:101D00000E944900DC01CB0198AB8FA70FC088EC83
:101D100090E09EA78DA78DA59EA50197F1F79EA7A0
:101D20008DA78FA598A9019798AB8FA78FA598A984
:101D3000009769F714C069A97AA98BA99CA90E9488
:101D40004900DC01CB0198AB8FA78FA598A99CA770
:101D50008BA78BA59CA50197F1F79CA78BA78AADB4
:101D60008F5F8AAF8AAD88300CF478CF8BAD60E09E
:101D70000E94BE1780E090E0AAE7B4E48FA398A782
:101D8000A9A7BAA76FA178A589A59AA520E030E0F8
:101D90004AEF54E40E941F02DC01CB018BA39CA3F9
:101DA000ADA3BEA36BA17CA18DA19EA120E030E0DC
:101DB00040E85FE30E94790388232CF481E090E0FF
:101DC0009AA389A33FC06BA17CA18DA19EA120E015
:101DD0003FEF4FE757E40E94190318164CF56FA127
:101DE00078A589A59AA520E030E040E251E40E9460
:101DF0001F02DC01CB01BC01CD010E944900DC01C6
:101E0000CB019AA389A30FC088EC90E098A38F8F91
:101E10008F8D98A10197F1F798A38F8F89A19AA12F
:101E200001979AA389A389A19AA1009769F714C081
:101E30006BA17CA18DA19EA10E944900DC01CB0178
:101E40009AA389A389A19AA19E8F8D8F8D8D9E8D36
:101E50000197F1F79E8F8D8F87E089AF84C089ADA0
:101E6000282F332727FD3095CE01CC96FC01E20FB9
:101E7000F31F90818BAD692F0E94BE1780E090E028
:101E8000AAE7B4E4898F9A8FAB8FBC8F698D7A8D66
:101E90008B8D9C8D20E030E04AEF54E40E941F02BD
:101EA000DC01CB018D8B9E8BAF8BB88F6D897E89CA
:101EB0008F89988D20E030E040E85FE30E9479034D
:101EC00088232CF481E090E09C8B8B8B3FC06D8944
:101ED0007E898F89988D20E03FEF4FE757E40E947D
:101EE000190318164CF5698D7A8D8B8D9C8D20E029
:101EF00030E040E251E40E941F02DC01CB01BC0152
:101F0000CD010E944900DC01CB019C8B8B8B0FC063
:101F100088EC90E09A8B898B89899A890197F1F7EF
:101F20009A8B898B8B899C8901979C8B8B8B8B8956
:101F30009C89009769F714C06D897E898F89988D77
:101F40000E944900DC01CB019C8B8B8B8B899C8987
:101F5000988B8F878F8598890197F1F7988B8F875A
:101F600089AD815089AF89AD88230CF078CF8BADD6
:101F700060E00E94BE1780E090E0AAE7B4E48B879F
:101F80009C87AD87BE876B857C858D859E8520E08F
:101F900030E04AEF54E40E941F02DC01CB018F8342
:101FA0009887A987BA876F81788589859A8520E087
:101FB00030E040E85FE30E94790388232CF481E05D
:101FC00090E09E838D833FC06F81788589859A8557
:101FD00020E03FEF4FE757E40E94190318164CF535
:101FE0006B857C858D859E8520E030E040E251E464
:101FF0000E941F02DC01CB01BC01CD010E944900FF
:10200000DC01CB019E838D830FC088EC90E09C8324
:102010008B838B819C810197F1F79C838B838D81CE
:102020009E8101979E838D838D819E81009769F7A4
:1020300013CE6F81788589859A850E944900DC01DD
:10204000CB019E838D838D819E819A838983898133
:102050009A810197F1F79A838983FECDDF93CF931D
:10206000CDB7DEB76D970FB6F894DEBF0FBECDBF0C
:1020700080E060E041E00E94BA161D8E75C08D8D33
:102080008F5F8D8F80E090E0AAE7B4E4898F9A8F0C
:10209000AB8FBC8F698D7A8D8B8D9C8D20E030E06D
:1020A0004AEF54E40E941F02DC01CB018D8B9E8B12
:1020B000AF8BB88F6D897E898F89988D20E030E055
:1020C00040E85FE30E94790388232CF481E090E0EC
:1020D0009C8B8B8B3FC06D897E898F89988D20E08A
:1020E0003FEF4FE757E40E94190318164CF5698D2E
:1020F0007A8D8B8D9C8D20E030E040E251E40E948F
:102100001F02DC01CB01BC01CD010E944900DC01B2
:10211000CB019C8B8B8B0FC088EC90E09A8B898BCA
:1021200089899A890197F1F79A8B898B8B899C8988
:1021300001979C8B8B8B8B899C89009769F714C0C6
:102140006D897E898F89988D0E944900DC01CB01C1
:102150009C8B8B8B8B899C89988B8F878F8598899B
:102160000197F1F7988B8F878D8D8B3008F487CF8F
:1021700080E060E041E00E94FF1780E060E040E026
:102180000E94FF1780E090E0AAE7B4E48B879C8769
:10219000AD87BE876B857C858D859E8520E030E090
:1021A0004AEF54E40E941F02DC01CB018F83988721
:1021B000A987BA876F81788589859A8520E030E084
:1021C00040E85FE30E94790388232CF481E090E0EB
:1021D0009E838D833FC06F81788589859A8520E0B5
:1021E0003FEF4FE757E40E94190318164CF56B8533
:1021F0007C858D859E8520E030E040E251E40E94A0
:102200001F02DC01CB01BC01CD010E944900DC01B1
:10221000CB019E838D830FC088EC90E09C838B83E1
:102220008B819C810197F1F79C838B838D819E81AB
:1022300001979E838D838D819E81009769F71DCFC5
:102240006F81788589859A850E944900DC01CB01E0
:102250009E838D838D819E819A83898389819A81D2
:102260000197F1F79A83898308CFDF93CF93CDB796
:10227000DEB72E970FB6F894DEBF0FBECDBF0E941B
:102280000A1C88E40E94FA1A85E40E94FA1A8CE477
:102290000E94FA1A8CE40E94FA1A8FE60E94FA1A37
:1022A00082E30E94FA1A80E30E94FA1A82E30E94F3
:1022B000FA1A82E30E94FA1A83E20E94FA1A80E074
:1022C00090E0AAE7B4E48B879C87AD87BE876B85D7
:1022D0007C858D859E8520E030E04AEF54E40E94A5
:1022E0001F02DC01CB018F839887A987BA876F8192
:1022F000788589859A8520E030E040E85FE30E9498
:10230000790388232CF481E090E09E838D833FC085
:102310006F81788589859A8520E03FEF4FE757E404
:102320000E94190318164CF56B857C858D859E855A
:1023300020E030E040E251E40E941F02DC01CB01CA
:10234000BC01CD010E944900DC01CB019E838D833D
:102350000FC088EC90E09C838B838B819C810197DC
:10236000F1F79C838B838D819E8101979E838D8362
:102370008D819E81009769F714C06F81788589856A
:102380009A850E944900DC01CB019E838D838D815B
:102390009E819A83898389819A810197F1F79A8333
:1023A000898381E00E94EA192E960FB6F894DEBF69
:1023B0000FBECDBFCF91DF910895DF93CF93CDB7FF
:1023C000DEB7A1E4B0E0E1E4F0E0808188608C93C6
:1023D000CF91DF910895DF93CF93CDB7DEB7A1E41E
:1023E000B0E0E1E4F0E0808188618C93A1E4B0E0AA
:1023F000E1E4F0E08081877F8C93CF91DF910895B5
:10240000DF93CF930F92CDB7DEB78983A1E4B0E01D
:10241000E1E4F0E08081887F8C93A1E4B0E0E1E426
:10242000F0E090818981892B8C930F90CF91DF917F
:102430000895DF93CF930F92CDB7DEB719828981CC
:1024400080688983AAE2B0E0EAE2F0E080818B7FD5
:102450008C93898184608983898182608983898161
:102460008F7E898389818F7D89838981877F898315
:10247000E0E4F0E089818083E9E2F0E083E38083B7
:10248000AAE2B0E0EAE2F0E0808180618C93AAE207
:10249000B0E0EAE2F0E0808188608C930F90CF9109
:1024A000DF910895DF93CF930F92CDB7DEB7898385
:1024B000EBE2F0E08081829586958770882F90E02E
:1024C000817090700097A1F3ECE2F0E08981808345
:1024D0000F90CF91DF910895DF93CF93CDB7DEB703
:1024E000EBE2F0E080818823DCF7ECE2F0E0808131
:1024F000CF91DF910895DF93CF93CDB7DEB7A3E5FA
:10250000B0E0E3E5F0E0808188608C93A3E5B0E083
:10251000E3E5F0E0808180648C93A3E5B0E0E3E53F
:10252000F0E0808184608C93A3E5B0E0E3E5F0E027
:1025300080818D7F8C93A3E5B0E0E3E5F0E08081BE
:1025400081608C93A3E5B0E0E3E5F0E080818062F8
:102550008C93A3E5B0E0E3E5F0E0808180618C93AB
:10256000CF91DF910895DF93CF930F92CDB7DEB770
:102570008983ECE5F0E0898180830F90CF91DF9132
:102580000895DF93CF93CDB7DEB7AEE4B0E0EEE4CD
:10259000F0E0808181608C93AEE4B0E0EEE4F0E0A6
:1025A000808182608C93AFE4B0E0EFE4F0E0808162
:1025B0008E7F8C93AFE4B0E0EFE4F0E080818D7F1C
:1025C0008C93AEE4B0E0EEE4F0E08081877F8C9302
:1025D000AEE4B0E0EEE4F0E080818F7E8C93ECE43A
:1025E000F0E01082EDE4F0E01082CF91DF910895E9
:1025F000DF93CF9300D0CDB7DEB79A8389830F9056
:102600000F90CF91DF910895DF93CF9300D0CDB796
:10261000DEB79A8389830F900F90CF91DF91089551
:10262000DF93CF9300D0CDB7DEB71A821982ECE4E6
:10263000F0E08081882F90E09A838983EDE4F0E0D8
:102640008081882F90E0982F88279C0189819A812A
:10265000820F931F9A83898389819A810F900F90AB
:10266000CF91DF910895DF93CF93CDB7DEB7A9E582
:10267000B0E0E9E5F0E0808180628C93CF91DF915A
:102680000895DF93CF9300D0CDB7DEB70F900F90B2
:10269000CF91DF910895DF93CF9300D0CDB7DEB710
:1026A0008A8319828A81813029F08A81882311F0F6
:1026B00081E0898389810F900F90CF91DF910895F8
:1026C000DF93CF9300D00F92CDB7DEB79B838A8381
:1026D00019828A819B81009711F481E08983898125
:1026E0000F900F900F90CF91DF910895DF93CF93CC
:1026F00000D00F92CDB7DEB79B838A8319828A817F
:102700009B81009711F481E0898389810F900F905C
:102710000F90CF91DF9108951F920F920FB60F92F5
:102720001124DF93CF93CDB7DEB7CF91DF910F9018
:102730000FBE0F901F901895DF93CF93CDB7DEB7E4
:10274000ADE2B0E0EDE2F0E0808180618C93ADE23B
:10275000B0E0EDE2F0E0808180648C93AEE2B0E026
:10276000EEE2F0E080818E7F8C93ADE2B0E0EDE2AE
:10277000F0E0808182608C93ADE2B0E0EDE2F0E0C9
:10278000808181608C93CF91DF910895DF93CF9307
:10279000CDB7DEB7ADE2B0E0EDE2F0E080818F7E54
:1027A0008C93ADE2B0E0EDE2F0E0808180648C9348
:1027B000CF91DF910895DF93CF930F92CDB7DEB71E
:1027C0008983EFE2F0E089818083EEE2F0E08081AE
:1027D0008823DCF7EFE2F0E080810F90CF91DF916A
:1027E0000895DF93CF930F92CDB7DEB78983E0E2F0
:1027F000F0E082E08083A1E2B0E0E1E2F0E08081FD
:102800008E7F8C93A1E2B0E0E1E2F0E080818D7FE9
:102810008C938981882321F0E2E2F0E08981808332
:10282000A6E5B0E0E6E5F0E0808184608C930F904F
:10283000CF91DF910895DF93CF930F92CDB7DEB79D
:102840008983E2E2F0E089818083A6E5B0E0E6E5F5
:10285000F0E0808184608C930F90CF91DF91089598
:10286000DF93CF930F92CDB7DEB71982A6E5B0E024
:10287000E6E5F0E0808180688C93A6E5B0E0E6E5CF
:10288000F0E0808180628C93A6E5B0E0E6E5F0E0C0
:10289000808184608C93E6E5F0E080818823DCF71A
:1028A000E1E2F0E08081882F90E0887F90708830AE
:1028B000910529F0E1E2F0E08081887F89838981B8
:1028C0000F90CF91DF910895DF93CF930F92CDB703
:1028D000DEB71982A6E5B0E0E6E5F0E0808180622F
:1028E0008C93A6E5B0E0E6E5F0E0808180688C930B
:1028F000A6E5B0E0E6E5F0E080818F7E8C93A6E56A
:10290000B0E0E6E5F0E0808184608C93E6E5F0E0FD
:1029100080818823DCF789810F90CF91DF91089522
:10292000DF93CF9300D0CDB7DEB78A831982E3E27D
:10293000F0E08A818E7F8083A6E5B0E0E6E5F0E0F6
:10294000808180688C93A6E5B0E0E6E5F0E08081C8
:102950008F7D8C93A6E5B0E0E6E5F0E080818460B1
:102960008C93E6E5F0E080818823DCF7E1E2F0E09B
:102970008081882F90E0887F90708831910529F0C0
:10298000E1E2F0E08081887F898389810F900F9058
:10299000CF91DF910895DF93CF9300D0CDB7DEB70D
:1029A0008A831982E3E2F0E08A81882F90E0880F21
:1029B000991F8083A6E5B0E0E6E5F0E080818068BD
:1029C0008C93A6E5B0E0E6E5F0E080818F7D8C9306
:1029D000A6E5B0E0E6E5F0E0808184608C93E6E572
:1029E000F0E080818823DCF7E1E2F0E08081882F4D
:1029F00090E0887F90708034910529F0E1E2F0E06A
:102A00008081887F898389810F900F90CF91DF919A
:102A10000895DF93CF9300D0CDB7DEB78A831982B4
:102A2000E3E2F0E08A818083A6E5B0E0E6E5F0E04D
:102A3000808180688C93A6E5B0E0E6E5F0E08081D7
:102A400084608C93E6E5F0E080818823DCF7E1E2A6
:102A5000F0E08081882F90E0887F90708832910527
:102A600029F0E1E2F0E08081887F898389810F90FD
:102A70000F90CF91DF910895DF93CF9300D00F9205
:102A8000CDB7DEB79B838A831982A6E5B0E0E6E581
:102A9000F0E0808180688C93A6E5B0E0E6E5F0E0A8
:102AA000808184608C93E6E5F0E080818823DCF708
:102AB000E1E2F0E08081882F90E0887F907080359F
:102AC000910529F0E1E2F0E08081887F8983E3E2EB
:102AD000F0E08081EA81FB81808389810F900F90F3
:102AE0000F90CF91DF910895DF93CF93CDB7DEB7ED
:102AF000A6E5B0E0E6E5F0E0808180688C93A6E58D
:102B0000B0E0E6E5F0E0808180618C93A6E5B0E07E
:102B1000E6E5F0E0808184608C93CF91DF910895A9
:102B2000DF93CF93CDB7DEB7ABE5B0E0EBE5F0E0F8
:102B3000808180648C93A5E5B0E0E5E5F0E08081DC
:102B40008E7F8C93A5E5B0E0E5E5F0E080818260C2
:102B50008C93CF91DF9108951F920F920FB60F9231
:102B600011242F933F934F935F936F937F938F9392
:102B70009F93AF93BF93EF93FF93DF93CF93CDB723
:102B8000DEB7E0911101F09112010995CF91DF912B
:102B9000FF91EF91BF91AF919F918F917F916F9135
:102BA0005F914F913F912F910F900FBE0F901F900B
:102BB00018951F920F920FB60F9211242F933F93E7
:102BC0004F935F936F937F938F939F93AF93BF9335
:102BD000EF93FF93DF93CF93CDB7DEB7E09113016F
:102BE000F09114010995CF91DF91FF91EF91BF9181
:102BF000AF919F918F917F916F915F914F913F9195
:102C00002F910F900FBE0F901F901895DF93CF93C9
:102C1000CDB7DEB7AFE5B0E0EFE5F0E080818068EA
:102C20008C93CF91DF910895DF93CF93CDB7DEB72B
:102C3000AFE5B0E0EFE5F0E080818F778C93CF9146
:102C4000DF910895DF93CF93CDB7DEB7A5E5B0E070
:102C5000E5E5F0E0808184608C93A5E5B0E0E5E5F2
:102C6000F0E0808188608C93ABE5B0E0EBE5F0E0CC
:102C7000808180688C93CF91DF910895DF93CF930B
:102C8000CDB7DEB7A4E5B0E0E4E5F0E08081806494
:102C90008C93ABE5B0E0EBE5F0E0808180628C9353
:102CA000CF91DF910895DF93CF9300D0CDB7DEB7FA
:102CB0009A83898389819A8190931201809311016B
:102CC00081E00F900F90CF91DF910895DF93CF9324
:102CD00000D0CDB7DEB79A83898389819A8190939A
:102CE00014018093130181E00F900F90CF91DF9139
:102CF0000895DF93CF9300D000D0CDB7DEB789839E
:102D00006A838981282F30E03C832B838B819C81CF
:102D100081309105D1F02B813C81223031052CF49A
:102D20008B819C81009761F01EC02B813C812230F9
:102D3000310581F08B819C818330910581F013C036
:102D4000EAE3F0E08A8180830EC0E7E3F0E08A8165
:102D5000808309C0E4E3F0E08A81808304C0E1E37A
:102D6000F0E08A8180830F900F900F900F90CF91A9
:102D7000DF910895DF93CF93CDB7DEB727970FB6D6
:102D8000F894DEBF0FBECDBF89836A834B838A81EF
:102D9000883008F0EAC08B81882309F074C08981EB
:102DA000282F30E03F832E838E819F8181309105D3
:102DB00059F12E813F81223031052CF48E819F8183
:102DC000009769F0D2C02E813F812230310589F110
:102DD0008E819F818330910509F440C0C6C0AAE36B
:102DE000B0E0EAE3F0E08081482F8A81282F30E0CC
:102DF00081E090E0022E02C0880F991F0A94E2F74A
:102E0000809584238C93B1C0A7E3B0E0E7E3F0E0C2
:102E10008081482F8A81282F30E081E090E0022EC7
:102E200002C0880F991F0A94E2F7809584238C933F
:102E30009CC0A4E3B0E0E4E3F0E08081482F8A8105
:102E4000282F30E081E090E0022E02C0880F991F09
:102E50000A94E2F7809584238C9387C0A1E3B0E0C5
:102E6000E1E3F0E08081482F8A81282F30E081E083
:102E700090E0022E02C0880F991F0A94E2F7809515
:102E800084238C9372C08B81813009F06EC089815C
:102E9000282F30E03D832C838C819D8181309105EA
:102EA00049F12C813D81223031052CF48C819D81AA
:102EB000009761F05AC02C813D812230310571F1BB
:102EC0008C819D8183309105E9F14FC0AAE3B0E088
:102ED000EAE3F0E08081482F8A81282F30E081E00A
:102EE00090E0022E02C0880F991F0A94E2F7842B0B
:102EF0008C933BC0A7E3B0E0E7E3F0E08081482F8C
:102F00008A81282F30E081E090E0022E02C0880FF5
:102F1000991F0A94E2F7842B8C9327C0A4E3B0E0B6
:102F2000E4E3F0E08081482F8A81282F30E081E0BF
:102F300090E0022E02C0880F991F0A94E2F7842BBA
:102F40008C9313C0A1E3B0E0E1E3F0E08081482F6F
:102F50008A81282F30E081E090E0022E02C0880FA5
:102F6000991F0A94E2F7842B8C9327960FB6F89456
:102F7000DEBF0FBECDBFCF91DF910895DF93CF931A
:102F800000D000D0CDB7DEB789836A838981282F2E
:102F900030E03C832B838B819C8181309105D1F083
:102FA0002B813C81223031052CF48B819C81009750
:102FB00061F01EC02B813C812230310581F08B8174
:102FC0009C818330910581F013C0EBE3F0E08A81AE
:102FD00080830EC0E8E3F0E08A81808309C0E5E3E6
:102FE000F0E08A81808304C0E2E3F0E08A8180839C
:102FF0000F900F900F900F90CF91DF910895DF9376
:10300000CF93CDB7DEB727970FB6F894DEBF0FBECC
:10301000CDBF89836A834B838A81883008F0EAC0F8
:103020008B81882309F074C08981282F30E03F8389
:103030002E838E819F818130910559F12E813F81B0
:10304000223031052CF48E819F81009769F0D2C027
:103050002E813F812230310589F18E819F8183301D
:10306000910509F440C0C6C0ABE3B0E0EBE3F0E08B
:103070008081482F8A81282F30E081E090E0022E65
:1030800002C0880F991F0A94E2F7809584238C93DD
:10309000B1C0A8E3B0E0E8E3F0E08081482F8A8186
:1030A000282F30E081E090E0022E02C0880F991FA7
:1030B0000A94E2F7809584238C939CC0A5E3B0E04A
:1030C000E5E3F0E08081482F8A81282F30E081E01D
:1030D00090E0022E02C0880F991F0A94E2F78095B3
:1030E00084238C9387C0A2E3B0E0E2E3F0E0808128
:1030F000482F8A81282F30E081E090E0022E02C024
:10310000880F991F0A94E2F7809584238C9372C0EC
:103110008B81813009F06EC08981282F30E03D839A
:103120002C838C819D818130910549F12C813D81D9
:10313000223031052CF48C819D81009761F05AC0BA
:103140002C813D812230310571F18C819D8183304C
:103150009105E9F14FC0ABE3B0E0EBE3F0E0808133
:10316000482F8A81282F30E081E090E0022E02C0B3
:10317000880F991F0A94E2F7842B8C933BC0A8E335
:10318000B0E0E8E3F0E08081482F8A81282F30E02A
:1031900081E090E0022E02C0880F991F0A94E2F7A6
:1031A000842B8C9327C0A5E3B0E0E5E3F0E08081B9
:1031B000482F8A81282F30E081E090E0022E02C063
:1031C000880F991F0A94E2F7842B8C9313C0A2E313
:1031D000B0E0E2E3F0E08081482F8A81282F30E0E0
:1031E00081E090E0022E02C0880F991F0A94E2F756
:1031F000842B8C9327960FB6F894DEBF0FBECDBFFD
:10320000CF91DF910895DF93CF9300D000D00F923C
:10321000CDB7DEB78A836B8319828A81282F30E08D
:103220003D832C834C815D814130510541F18C817E
:103230009D818230910534F42C813D812115310529
:1032400061F052C04C815D814230510551F18C8159
:103250009D8183309105B9F147C0E9E3F0E08081B9
:10326000282F30E08B81882F90E0A90102C055956E
:1032700047958A95E2F7CA018170898335C0E6E3F4
:10328000F0E08081282F30E08B81882F90E0A90129
:1032900002C0559547958A95E2F7CA0181708983E6
:1032A00023C0E3E3F0E08081282F30E08B81882F7A
:1032B00090E0A90102C0559547958A95E2F7CA01A9
:1032C0008170898311C0E0E3F0E08081282F30E035
:1032D0008B81882F90E0A90102C0559547958A956A
:1032E000E2F7CA018170898389810F900F900F9056
:1032F0000F900F90CF91DF910895DF93CF93CDB7CB
:10330000DEB7A7E2B0E0E7E2F0E0808180688C936E
:10331000A7E2B0E0E7E2F0E080818F7B8C93A7E248
:10332000B0E0E7E2F0E0808180628C93A6E2B0E05A
:10333000E6E2F0E0808181608C93A6E2B0E0E6E214
:10334000F0E0808182608C93A6E2B0E0E6E2F0E0FB
:10335000808184608C93A6E2B0E0E6E2F0E08081B8
:1033600080688C93CF91DF910895DF93CF930F9274
:10337000CDB7DEB78983A7E2B0E0E7E2F0E0808175
:10338000807E8C93A7E2B0E0E7E2F0E09081898153
:10339000892B8C93A6E2B0E0E6E2F0E080818064C5
:1033A0008C93E6E2F0E0808182958F70882F90E028
:1033B000817090700097A9F3A6E2B0E0E6E2F0E039
:1033C000808180618C93E5E2F0E080810F90CF9165
:1033D000DF910895DF93CF93CDB7DEB76D970FB62A
:1033E000F894DEBF0FBECDBF8D8F83E060E040E07C
:1033F0000E94FF1783E061E040E00E94FF1780E039
:103400006D8D0E94BE1783E062E041E00E94FF17CD
:1034100080E090E0A0E0B0E4898F9A8FAB8FBC8F02
:10342000698D7A8D8B8D9C8D20E030E04AEF54E4DD
:103430000E941F02DC01CB018D8B9E8BAF8BB88F5E
:103440006D897E898F89988D20E030E040E85FE3C8
:103450000E94790388232CF481E090E09C8B8B8B75
:103460003FC06D897E898F89988D20E03FEF4FE7BF
:1034700057E40E94190318164CF5698D7A8D8B8DCF
:103480009C8D20E030E040E251E40E941F02DC010C
:10349000CB01BC01CD010E944900DC01CB019C8B1A
:1034A0008B8B0FC088EC90E09A8B898B89899A89E5
:1034B0000197F1F79A8B898B8B899C8901979C8B5B
:1034C0008B8B8B899C89009769F714C06D897E89E5
:1034D0008F89988D0E944900DC01CB019C8B8B8BDE
:1034E0008B899C89988B8F878F8598890197F1F7B5
:1034F000988B8F8783E062E040E00E94FF1780E0B6
:1035000090E0A0E0B0E48B879C87AD87BE876B8599
:103510007C858D859E8520E030E04AEF54E40E9452
:103520001F02DC01CB018F839887A987BA876F813F
:10353000788589859A8520E030E040E85FE30E9445
:10354000790388232CF481E090E09E838D833FC033
:103550006F81788589859A8520E03FEF4FE757E4B2
:103560000E94190318164CF56B857C858D859E8508
:1035700020E030E040E251E40E941F02DC01CB0178
:10358000BC01CD010E944900DC01CB019E838D83EB
:103590000FC088EC90E09C838B838B819C8101978A
:1035A000F1F79C838B838D819E8101979E838D8310
:1035B0008D819E81009769F714C06F817885898518
:1035C0009A850E944900DC01CB019E838D838D8109
:1035D0009E819A83898389819A810197F1F79A83E1
:1035E00089836D960FB6F894DEBF0FBECDBFCF9125
:1035F000DF910895DF93CF93CDB7DEB76D970FB608
:10360000F894DEBF0FBECDBF8D8F83E060E041E058
:103610000E94FF1783E061E040E00E94FF1780E016
:103620006D8D0E94BE1783E062E041E00E94FF17AB
:1036300080E090E0A0E0B0E4898F9A8FAB8FBC8FE0
:10364000698D7A8D8B8D9C8D20E030E04AEF54E4BB
:103650000E941F02DC01CB018D8B9E8BAF8BB88F3C
:103660006D897E898F89988D20E030E040E85FE3A6
:103670000E94790388232CF481E090E09C8B8B8B53
:103680003FC06D897E898F89988D20E03FEF4FE79D
:1036900057E40E94190318164CF5698D7A8D8B8DAD
:1036A0009C8D20E030E040E251E40E941F02DC01EA
:1036B000CB01BC01CD010E944900DC01CB019C8BF8
:1036C0008B8B0FC088EC90E09A8B898B89899A89C3
:1036D0000197F1F79A8B898B8B899C8901979C8B39
:1036E0008B8B8B899C89009769F714C06D897E89C3
:1036F0008F89988D0E944900DC01CB019C8B8B8BBC
:103700008B899C89988B8F878F8598890197F1F792
:10371000988B8F8783E062E040E00E94FF1780E093
:1037200090E0A0E0B0E48B879C87AD87BE876B8577
:103730007C858D859E8520E030E04AEF54E40E9430
:103740001F02DC01CB018F839887A987BA876F811D
:10375000788589859A8520E030E040E85FE30E9423
:10376000790388232CF481E090E09E838D833FC011
:103770006F81788589859A8520E03FEF4FE757E490
:103780000E94190318164CF56B857C858D859E85E6
:1037900020E030E040E251E40E941F02DC01CB0156
:1037A000BC01CD010E944900DC01CB019E838D83C9
:1037B0000FC088EC90E09C838B838B819C81019768
:1037C000F1F79C838B838D819E8101979E838D83EE
:1037D0008D819E81009769F714C06F8178858985F6
:1037E0009A850E944900DC01CB019E838D838D81E7
:1037F0009E819A83898389819A810197F1F79A83BF
:1038000089836D960FB6F894DEBF0FBECDBFCF9102
:10381000DF910895DF93CF93CDB7DEB76C970FB6E6
:10382000F894DEBF0FBECDBF83E06FEF0E94791624
:1038300080E06FEF0E94791680E090E0ACE0B2E4A7
:10384000898F9A8FAB8FBC8F698D7A8D8B8D9C8D74
:1038500020E030E04AEF54E40E941F02DC01CB017B
:103860008D8B9E8BAF8BB88F6D897E898F89988D5C
:1038700020E030E040E85FE30E94790388232CF4E5
:1038800081E090E09C8B8B8B3FC06D897E898F8916
:10389000988D20E03FEF4FE757E40E941903181678
:1038A0004CF5698D7A8D8B8D9C8D20E030E040E267
:1038B00051E40E941F02DC01CB01BC01CD010E943A
:1038C0004900DC01CB019C8B8B8B0FC088EC90E016
:1038D0009A8B898B89899A890197F1F79A8B898BC1
:1038E0008B899C8901979C8B8B8B8B899C890097FA
:1038F00069F714C06D897E898F89988D0E9449006F
:10390000DC01CB019C8B8B8B8B899C89988B8F875F
:103910008F8598890197F1F7988B8F8788E30E94AC
:10392000EA198FE00E94EA1981E00E94EA1980E01A
:1039300090E0A0E0B0E48B879C87AD87BE876B8565
:103940007C858D859E8520E030E04AEF54E40E941E
:103950001F02DC01CB018F839887A987BA876F810B
:10396000788589859A8520E030E040E85FE30E9411
:10397000790388232CF481E090E09E838D833FC0FF
:103980006F81788589859A8520E03FEF4FE757E47E
:103990000E94190318164CF56B857C858D859E85D4
:1039A00020E030E040E251E40E941F02DC01CB0144
:1039B000BC01CD010E944900DC01CB019E838D83B7
:1039C0000FC088EC90E09C838B838B819C81019756
:1039D000F1F79C838B838D819E8101979E838D83DC
:1039E0008D819E81009769F714C06F8178858985E4
:1039F0009A850E944900DC01CB019E838D838D81D5
:103A00009E819A83898389819A810197F1F79A83AC
:103A100089836C960FB6F894DEBF0FBECDBFCF91F1
:103A2000DF910895DF93CF9300D00F92CDB7DEB72B
:103A30009B838A8319820EC08981282F30E08A8176
:103A40009B81FC01E20FF31F80810E94FA1A898199
:103A50008F5F89838981282F30E08A819B81FC01D7
:103A6000E20FF31F8081882339F70F900F900F909A
:103A7000CF91DF910895DF93CF9300D00F92CDB710
:103A8000DEB78A836B838B81882319F48A818983CB
:103A900006C08B81813019F48A81805C8983898199
:103AA00080580E94EA190F900F900F90CF91DF91EC
:103AB0000895DF93CF9300D0CDB7DEB79A83898383
:103AC0000AC0E981FA8180810E94FA1A89819A816B
:103AD00001969A838983E981FA818081882389F715
:103AE0000F900F90CF91DF910895DF93CF9300D087
:103AF0000F92CDB7DEB79B838A838A819B8127E2B1
:103B00008031920708F487C08A819B8120E137E2E7
:103B1000B9010E943533CB0189838981805D0E9480
:103B2000FA1A8981282F30E080E197E2A901489FA5
:103B30009001499F300D589F300D11248A819B813F
:103B4000821B930B9B838A838A819B8128EE33E0BF
:103B5000B9010E943533CB0189838981805D0E9440
:103B6000FA1A8981282F30E088EE93E0A901489F56
:103B70009001499F300D589F300D11248A819B81FF
:103B8000821B930B9B838A838A819B8124E630E08E
:103B9000B9010E943533CB0189838981805D0E9400
:103BA000FA1A8981282F30E08CE99FEFAC01249F1D
:103BB000C001259F900D349F900D11249C018A8196
:103BC0009B81820F931F9B838A838A819B812AE03A
:103BD00030E0B9010E943533CB0189838981805D52
:103BE0000E94FA1A8981882F90E09C01220F331FCE
:103BF000C901880F991F880F991F820F931F9095F5
:103C000081959F4F982F8A81890F89838981805D53
:103C10000E94FA1AE7C08A819B8153E0883E95078B
:103C200008F467C08A819B8128EE33E0B9010E94C5
:103C30003533CB0189838981805D0E94FA1A89819D
:103C4000282F30E088EE93E0A901489F9001499F1A
:103C5000300D589F300D11248A819B81821B930B5C
:103C60009B838A838A819B8124E630E0B9010E948C
:103C70003533CB0189838981805D0E94FA1A89815D
:103C8000282F30E08CE99FEFAC01249FC001259FD5
:103C9000900D349F900D11249C018A819B81820F8D
:103CA000931F9B838A838A819B812AE030E0B9013C
:103CB0000E943533CB0189838981805D0E94FA1A85
:103CC0008981882F90E09C01220F331FC901880F42
:103CD000991F880F991F820F931F909581959F4F71
:103CE000982F8A81890F89838981805D0E94FA1AC1
:103CF00079C08A819B818436910508F447C08A8106
:103D00009B8124E630E0B9010E943533CB018983E1
:103D10008981805D0E94FA1A8981282F30E08CE920
:103D20009FEFAC01249FC001259F900D349F900D03
:103D300011249C018A819B81820F931F9B838A831C
:103D40008A819B812AE030E0B9010E943533CB01A2
:103D500089838981805D0E94FA1A8981882F90E089
:103D60009C01220F331FC901880F991F880F991FCB
:103D7000820F931F909581959F4F982F8A81890F6D
:103D800089838981805D0E94FA1A2CC08A819B8177
:103D90008A30910518F18A819AE0692F0E942933AF
:103DA00089838981805D0E94FA1A8981882F90E039
:103DB0009C01220F331FC901880F991F880F991F7B
:103DC000820F931F909581959F4F982F8A81890F1D
:103DD00089838981805D0E94FA1A04C08A81805D8E
:103DE0000E94FA1A0F900F900F90CF91DF910895D3
:103DF000DF93CF93CDB7DEB781E060E041E00E9472
:103E0000BA1681E061E041E00E94BA1681E062E00A
:103E100041E00E94BA1681E063E041E00E94BA16D8
:103E200081E064E040E00E94BA1681E065E040E095
:103E30000E94BA1681E066E040E00E94BA1681E076
:103E400067E040E00E94BA1681E06FEF0E94BE1763
:103E5000CF91DF910895DF93CF93CDB7DEB7619710
:103E60000FB6F894DEBF0FBECDBF8FEF898B188AD7
:103E7000ACC081E0688940E00E94FF1784E08F8732
:103E800098C081E06F850E940319882309F08EC0D5
:103E90008F85882F90E0AC01445050408889282FAE
:103EA00030E0CA01880F991F880F991F820F931F56
:103EB000FC01EB51FF4F8081898B81E06F850E946F
:103EC00003198823D1F380E090E0A0EAB1E48B8766
:103ED0009C87AD87BE876B857C858D859E8520E020
:103EE00030E04AEF54E40E941F02DC01CB018F83D3
:103EF0009887A987BA876F81788589859A8520E018
:103F000030E040E85FE30E94790388232CF481E0ED
:103F100090E09E838D833FC06F81788589859A85E7
:103F200020E03FEF4FE757E40E94190318164CF5C5
:103F30006B857C858D859E8520E030E040E251E4F4
:103F40000E941F02DC01CB01BC01CD010E9449008F
:103F5000DC01CB019E838D830FC088EC90E09C83B5
:103F60008B838B819C810197F1F79C838B838D815F
:103F70009E8101979E838D838D819E81009769F735
:103F80001CC06F81788589859A850E944900DC0173
:103F9000CB019E838D838D819E819A8389838981C4
:103FA0009A810197F1F79A83898307C08F858F5F84
:103FB0008F878F85883008F464CF81E0688941E07D
:103FC0000E94FF1788898F5F888B8889843008F466
:103FD00050CF898961960FB6F894DEBF0FBECDBF72
:103FE000CF91DF910895DF93CF93CDB7DEB784EA09
:103FF0000E94F113CF91DF910895DF93CF9300D00A
:104000000F92CDB7DEB79B838A8319820E9430144A
:1040100080EA0E94901480E00E9409158981282F6F
:1040200030E08A819B81FC01E20FF31F908189813E
:104030008F5F8983892F0E9409150E9474150F9044
:104040000F900F90CF91DF910895DF93CF930F9250
:10405000CDB7DEB70E94301480EA0E94901480E051
:104060000E9409150E94641481EA0E940915CE017C
:1040700001960E943C150E94741589810F90CF9182
:10408000DF910895DF93CF93CDB7DEB727970FB6B3
:10409000F894DEBF0FBECDBF9D838C836E834F83AC
:1040A0008AE190E00E941A239A83898389819A8108
:1040B000009709F46FC08091150190911601009747
:1040C00041F489819A8190931601809315010E9491
:1040D000A9228E81823010F081E08E83E981FA81FD
:1040E000118E108EE981FA818E81868BE981FA81A9
:1040F0008F81878BE981FA818C819D819183808377
:1041000089819A8102960E94B02389819A810C96B6
:104110000E94B023E981FA8189819A819187808701
:10412000E981FA8189819A81938B828B8E81282FF4
:1041300030E089E090E0821B930BE981FA8195875A
:104140008487E981FA81968980911701891728F47B
:10415000E981FA81868980931701E981FA8186894C
:10416000282F30E0C901880F991F880F991F880FE9
:10417000991F820F931FAC01425E5E4F89819A8125
:104180009C012E5F3F4FCA01B9010E94C02381E00C
:104190008B8302C08FEF8B838B8127960FB6F894A9
:1041A000DEBF0FBECDBFCF91DF910895DF93CF93D8
:1041B00000D000D000D0CDB7DEB79C838B837E8348
:1041C0006D8320911801309119018B819C81820FA0
:1041D000931F9A838983809115019091160102960D
:1041E0000E947824E0911501F091160189819A814D
:1041F00093838283209118013091190189819A81DA
:104200008217930770F480914401909145012091A9
:104210001501309116012E5F3F4FB9010E940C2409
:104220000DC0809142019091430120911501309180
:1042300016012E5F3F4FB9010E940C248D819E8193
:10424000009761F080911501909116019C01245F07
:104250003F4F8D819E81B9010E940C2426960FB696
:10426000F894DEBF0FBECDBFCF91DF910895DF93ED
:10427000CF9300D0CDB7DEB73AC0F894E0914B01B0
:10428000F0914C01868197819A83898389819A81F3
:104290000C960E947824789489819A8102960E94D3
:1042A0007824E981FA81968980911701891728F489
:1042B000E981FA81868980931701E981FA818689EB
:1042C000282F30E0C901880F991F880F991F880F88
:1042D000991F820F931FAC01425E5E4F89819A81C4
:1042E0009C012E5F3F4FCA01B9010E94C0238091FB
:1042F0004601882309F0C1CF0F900F90CF91DF9135
:104300000895DF93CF9300D000D0CDB7DEB70E94E1
:10431000E62E20911A0130911B01821B930B909382
:104320001D0180931C0185C0809118019091190195
:104330000196909319018093180180911C0190912E
:104340001D01019790931D0180931C01809118011C
:1043500090911901009709F064C0809142019091F9
:1043600043019A8389838091440190914501909300
:1043700043018093420189819A8190934501809302
:1043800044014FC0E0914201F09143010580F68164
:10439000E02D868197819C838B83EB81FC81228138
:1043A000338180911801909119018217930708F4C5
:1043B00040C0F8948B819C8102960E947824EB8106
:1043C000FC8184899589009729F08B819C810C96CA
:1043D0000E9478247894EB81FC8196898091170162
:1043E000891728F4EB81FC81868980931701EB8182
:1043F000FC818689282F30E0C901880F991F880F1A
:10440000991F880F991F820F931FAC01425E5E4F68
:104410008B819C819C012E5F3F4FCA01B9010E9494
:10442000C023E0914201F09143018081882309F08B
:10443000A9CF80911C0190911D01009709F074CFC4
:10444000809118019091190190931B0180931A019A
:104450000F900F900F900F90CF91DF910895DF9301
:10446000CF9300D0CDB7DEB70E9437210E948121C3
:104470000AC080911701882309F466C08091170152
:1044800081508093170180911701282F30E0C901D6
:10449000880F991F880F991F880F991F820F931FEC
:1044A000FC01E25EFE4F8081882319F380911701A1
:1044B000282F30E0C901880F991F880F991F880F96
:1044C000991F820F931F825E9E4F9A838983E98191
:1044D000FA810180F281E02D82819381E981FA8164
:1044E00092838183E981FA812181328189819A8154
:1044F00003962817390759F4E981FA810180F2817E
:10450000E02D82819381E981FA8192838183E9811F
:10451000FA810180F281E02D8681978190931601C6
:1045200080931501E0911501F091160140815181B0
:104530008091150190911601E0911501F0911601FD
:104540002789622FFA0109950F900F90CF91DF9183
:104550000895DF93CF930F92CDB7DEB7198213C0C2
:104560008981282F30E0C901880F991F880F991F72
:10457000880F991F820F931F825E9E4F0E94862391
:1045800089818F5F89838981823050F380E391E054
:104590000E94862389E391E00E94862386E491E0CD
:1045A0000E94862380E391E090934301809342012F
:1045B00089E391E090934501809344010F90CF915E
:1045C000DF910895DF93CF9300D000D00F92CDB745
:1045D000DEB79D838C83EC81FD810580F681E02D23
:1045E000868197819B838A838A819B810C960E9416
:1045F00078248A819B819C01245F3F4F86E491E06F
:10460000B9010E94C023EA81FB819689E0911501DE
:10461000F09116018689981718F081E0898301C00E
:10462000198289810F900F900F900F900F90CF916A
:10463000DF910895DF93CF9300D000D0CDB7DEB7E0
:104640009C838B831A8219820E94502E80914F0185
:10465000909150012B813C81820F931F22E088357D
:10466000920718F520914F01309150018B819C8168
:10467000280F391F80914F019091500182179307A5
:10468000A0F480914F01909150018F5A9E4F9A83D0
:10469000898320914F01309150018B819C81820F41
:1046A000931F9093500180934F010E945C2E89814B
:1046B0009A810F900F900F900F90CF91DF910895F6
:1046C000DF93CF9300D0CDB7DEB79A8389830F9065
:1046D0000F90CF91DF910895DF93CF93CDB7DEB7E1
:1046E0001092500110924F01CF91DF910895DF9306
:1046F000CF93CDB7DEB720914F013091500188E5BF
:1047000092E0821B930BCF91DF910895DF93CF93BB
:1047100000D0CDB7DEB79A83898389819A810396C9
:10472000E981FA8192838183E981FA818FEF9FEF9A
:104730009483838389819A810396E981FA819683A0
:10474000858389819A810396E981FA81908787839D
:10475000E981FA8110820F900F90CF91DF91089537
:10476000DF93CF9300D0CDB7DEB79A838983E981F9
:10477000FA81118610860F900F90CF91DF910895E6
:10478000DF93CF9300D000D000D0CDB7DEB79C83AD
:104790008B837E836D83EB81FC81818192819A83FF
:1047A0008983E981FA8182819381ED81FE819383FE
:1047B0008283EB81FC8181819281ED81FE819583F1
:1047C0008483E981FA810280F381E02D8D819E81CD
:1047D000958384838D819E81E981FA81938382838D
:1047E0008D819E81EB81FC8192838183ED81FE81AD
:1047F0008B819C8191878087EB81FC8180818F5F99
:10480000EB81FC81808326960FB6F894DEBF0FBE45
:10481000CDBFCF91DF910895DF93CF93CDB7DEB7B2
:1048200028970FB6F894DEBF0FBECDBF9E838D8351
:1048300078876F83EF81F885808191819A8389835E
:1048400089819A812FEF8F3F920739F4ED81FE81A4
:10485000878190859C838B8318C08D819E81039670
:104860009C838B8306C0EB81FC81828193819C8336
:104870008B83EB81FC810280F381E02D20813181EB
:1048800089819A818217930770F7EB81FC8182817D
:104890009381EF81F88593838283EF81F88502808D
:1048A000F381E02D8F81988595838483EF81F8854E
:1048B0008B819C81958384838F819885EB81FC819A
:1048C00093838283EF81F8858D819E819187808794
:1048D000ED81FE8180818F5FED81FE81808328964E
:1048E0000FB6F894DEBF0FBECDBFCF91DF91089514
:1048F000DF93CF9300D000D0CDB7DEB79C838B83FE
:10490000EB81FC81A281B381EB81FC818481958163
:1049100015969C938E931497EB81FC81A481B581AD
:10492000EB81FC818281938113969C938E931297E5
:10493000EB81FC81808591859A838983E981FA8165
:10494000218132818B819C812817390741F4EB81C9
:10495000FC8184819581E981FA8192838183EB8155
:10496000FC8111861086E981FA8180818150E9817C
:10497000FA8180830F900F900F900F90CF91DF916D
:104980000895DF93CF93CDB7DEB728970FB6F8948D
:10499000DEBF0FBECDBF9C838B837E836D83588724
:1049A0004F83EB81FC8181E180838B819C81019726
:1049B0009C838B83EB81FC8182E280838B819C8151
:1049C00001979C838B83EB81FC8183E380838B81C4
:1049D0009C8101979C838B838D819E819A8389839F
:1049E0008981EB81FC8180838B819C8101979C83F1
:1049F0008B8389819A81892F99279A8389838981D9
:104A0000EB81FC8180838B819C8101979C838B83CC
:104A1000EB81FC8110828B819C8101979C838B832D
:104A2000EB81FC8180E880838B819C8101979C8352
:104A30008B83EB81FC8110828B819C8101979C830D
:104A40008B83EB81FC8182E080838B819C81019749
:104A50009C838B83EB81FC8183E080838B819C81B1
:104A600001979C838B83EB81FC8184E080838B8125
:104A70009C8101979C838B83EB81FC8185E0808303
:104A80008B819C8101979C838B83EB81FC8186E0E9
:104A900080838B819C8101979C838B83EB81FC813C
:104AA00087E080838B819C8101979C838B83EB8142
:104AB000FC8188E080838B819C8101979C838B8320
:104AC000EB81FC8189E080838B819C8101979C83B1
:104AD0008B83EB81FC8180E180838B819C810197BA
:104AE0009C838B83EB81FC8181E180838B819C8122
:104AF00001979C838B83EB81FC8182E180838B8196
:104B00009C8101979C838B83EB81FC8183E1808373
:104B10008B819C8101979C838B83EB81FC8184E159
:104B200080838B819C8101979C838B83EB81FC81AB
:104B300085E180838B819C8101979C838B83EB81B2
:104B4000FC8186E180838B819C8101979C838B8390
:104B5000EB81FC8187E180838B819C8101979C8321
:104B60008B83EB81FC8188E180838B819C81019721
:104B70009C838B83EB81FC8189E180838B819C8189
:104B800001979C838B83EB81FC8180E280838B8106
:104B90009C8101979C838B83EB81FC8181E28083E4
:104BA0008B819C8101979C838B83EB81FC8182E2CA
:104BB00080838B819C8101979C838B83EB81FC811B
:104BC00083E280838B819C8101979C838B838F817F
:104BD00098859A8389838981EB81FC8180838B818D
:104BE0009C8101979C838B8389819A81892F992746
:104BF0009A8389838981EB81FC8180838B819C816D
:104C000001979C838B83EB81FC8186E280838B817F
:104C10009C8101979C838B83EB81FC8187E280835D
:104C20008B819C8101979C838B83EB81FC8188E243
:104C300080838B819C8101979C838B83EB81FC819A
:104C400089E280838B819C8101979C838B83EB819C
:104C5000FC8180E380838B819C8101979C838B8383
:104C6000EB81FC8181E380838B819C8101979C8314
:104C70008B838B819C8128960FB6F894DEBF0FBE84
:104C8000CDBFCF91DF910895DF93CF93CDB7DEB73E
:104C90000E943427A091A903B091AA03CD91CDBF62
:104CA000DD91DEBFFF91EF91DF91CF91BF91AF9189
:104CB0009F918F917F916F915F914F913F912F9134
:104CC0001F910F91FF90EF90DF90CF90BF90AF902A
:104CD0009F908F907F906F905F904F903F902F901C
:104CE0001F900F900FBE0F90089581E0CF91DF913C
:104CF0000895DF93CF93CDB7DEB7CF91DF910895BD
:104D00000F920FB6F8940F921F9211242F923F9298
:104D10004F925F926F927F928F929F92AF92BF92CB
:104D2000CF92DF92EF92FF920F931F932F933F93B7
:104D30004F935F936F937F938F939F93AF93BF93A3
:104D4000CF93DF93EF93FF93A091A903B091AA03B0
:104D50000DB60D920EB60D920E94F02FA091A903F0
:104D6000B091AA03CD91CDBFDD91DEBFFF91EF9150
:104D7000DF91CF91BF91AF919F918F917F916F9173
:104D80005F914F913F912F911F910F91FF90EF9065
:104D9000DF90CF90BF90AF909F908F907F906F905B
:104DA0005F904F903F902F901F900F900FBE0F90ED
:104DB00008950F920FB6F8940F921F9211242F921C
:104DC0003F924F925F926F927F928F929F92AF929B
:104DD000BF92CF92DF92EF92FF920F931F932F9388
:104DE0003F934F935F936F937F938F939F93AF9373
:104DF000BF93CF93DF93EF93FF93A091A903B0915B
:104E0000AA030DB60D920EB60D920E941B2F0E94A2
:104E1000F02FA091A903B091AA03CD91CDBFDD9150
:104E2000DEBFFF91EF91DF91CF91BF91AF919F9145
:104E30008F917F916F915F914F913F912F911F9132
:104E40000F91FF90EF90DF90CF90BF90AF909F9029
:104E50008F907F906F905F904F903F902F901F901A
:104E60000F900FBE0F900895DF93CF9300D000D026
:104E700000D0CDB7DEB780E49FE1A0E0B0E08B8347
:104E80009C83AD83BE838B819C81AD81BE81689400
:104E900015F8B695A795979587951694D1F78B83B6
:104EA0009C83AD83BE838B819C81AD81BE81019744
:104EB000A109B1098B839C83AD83BE838B818983D8
:104EC0008B819C81AD81BE81892F9A2FAB2FBB270F
:104ED0008B839C83AD83BE838B818A83EBE4F0E07C
:104EE0008A818083EAE4F0E0898180838BE0898392
:104EF000EEE4F0E089818083E9E5F0E08081898358
:104F0000898180618983E9E5F0E089818083269643
:104F10000FB6F894DEBF0FBECDBFCF91DF910895DD
:104F20000E94D9261895DF93CF93CDB7DEB7289787
:104F30000FB6F894DEBF0FBECDBF8F8368871A828D
:104F400019828F81882309F48CC08FE190E00E9440
:104F50001A239E838D838D819E81009709F481C0E1
:104F60008F81282F30E08885882F90E0AC01249F26
:104F7000C001259F900D349F900D112401969C83B4
:104F80008B838B819C810E941A23ED81FE8191830A
:104F90008083ED81FE8180819181009709F45DC05D
:104FA000ED81FE81408151818F81282F30E08885FD
:104FB000882F90E0BC01269FC001279F900D369F4F
:104FC000900D1124840F951FED81FE8193838283C0
:104FD000ED81FE81128EED81FE8180819181ED81D6
:104FE000FE8195838483ED81FE81408151818F8193
:104FF000882F90E09C01215030408885882F90E0D8
:10500000BC01269FC001279F900D369F900D112453
:10501000840F951FED81FE8197838683ED81FE814C
:105020008F81838FED81FE818885848FED81FE8164
:105030008FEF858FED81FE818FEF868F8D819E8131
:1050400008960E9486238D819E8141960E94862328
:105050008D819E819A83898304C08D819E810E9467
:10506000602389819A8128960FB6F894DEBF0FBE1F
:10507000CDBFCF91DF910895DF93CF93CDB7DEB74A
:105080002C970FB6F894DEBF0FBECDBF9E838D83E5
:1050900078876F835A8749872B8719820FB6F894D0
:1050A0000F92ED81FE81928DED81FE81838D9817A7
:1050B000D8F48D819E812F813885B9014B850E945E
:1050C000772AED81FE818189882349F08D819E8137
:1050D00041960E948C30813011F40E9480260F90FE
:1050E0000FBE81E08C875CC089859A85009721F48A
:1050F0000F900FBE1C8654C08981882331F4CE01E5
:1051000002960E94F43081E089830F900FBE0E94C6
:10511000502E0FB6F8940F92ED81FE81858D8F3F52
:1051200019F4ED81FE81158EED81FE81868D8F3F14
:1051300019F4ED81FE81168E0F900FBECE010296FE
:105140009E01275F3F4FB9010E940D31882309F569
:105150008D819E810E94DB2B8823A1F08D819E8111
:10516000089629853A85B9010E9456308D819E8125
:105170000E94542B0E945C2E882309F08FCF0E943E
:1051800080268CCF8D819E810E94542B0E945C2EA4
:1051900085CF8D819E810E94542B0E945C2E1C869F
:1051A0008C852C960FB6F894DEBF0FBECDBFCF9185
:1051B000DF910895DF93CF93CDB7DEB729970FB670
:1051C000F894DEBF0FBECDBF9C838B837E836D833F
:1051D00058874F8329871982EB81FC81928DEB815F
:1051E000FC81838D981740F58B819C812D813E81B8
:1051F000B90149850E94772AEB81FC81868D8F3F1A
:1052000089F4EB81FC818189882399F08B819C81D1
:1052100041960E948C30882361F0EF81F88581E00F
:10522000808307C0EB81FC81868D8F5FEB81FC81E1
:10523000868F81E08A8301C01A828A8129960FB6FF
:10524000F894DEBF0FBECDBFCF91DF910895DF93FD
:10525000CF93CDB7DEB72E970FB6F894DEBF0FBE53
:10526000CDBF98878F837A8769875C874B872D8727
:105270001B820FB6F8940F92EF81F885828D8823F8
:1052800009F43FC0EF81F885868197819A838983ED
:105290008F81988529853A85B9010E940C2B8D85CF
:1052A0008823B1F4EF81F885828D8150EF81F885F4
:1052B000828FEF81F88580858823F1F08F81988532
:1052C00008960E948C308130B9F40E94802614C068
:1052D000EF81F88589819A8197838683EF81F885AC
:1052E0008189882349F08F81988541960E948C306E
:1052F000882311F00E9480260F900FBE81E08E87D8
:105300005CC08B859C85009721F40F900FBE1E8694
:1053100054C08B81882331F4CE0104960E94F4306E
:1053200081E08B830F900FBE0E94502E0FB6F89431
:105330000F92EF81F885858D8F3F19F4EF81F88505
:10534000158EEF81F885868D8F3F19F4EF81F885F2
:10535000168E0F900FBECE0104969E01255F3F4F23
:10536000B9010E940D31882309F58F8198850E942B
:10537000A82B8823A1F08F81988541962B853C85A9
:10538000B9010E9456308F8198850E94542B0E944B
:105390005C2E882309F06DCF0E9480266ACF8F8112
:1053A00098850E94542B0E945C2E63CF8F81988534
:1053B0000E94542B0E945C2E1E868E852E960FB660
:1053C000F894DEBF0FBECDBFCF91DF910895DF937C
:1053D000CF93CDB7DEB728970FB6F894DEBF0FBED8
:1053E000CDBF9C838B837E836D8358874F831982C7
:1053F000EB81FC81828D882371F18B819C812D81D1
:105400003E81B9010E940C2BEB81FC81828D815081
:10541000EB81FC81828FEB81FC81858D8F3F89F44C
:10542000EB81FC818085882399F08B819C81089693
:105430000E948C30882361F0EF81F88581E08083C1
:1054400007C0EB81FC81858D8F5FEB81FC81858FAF
:1054500081E08A8301C01A828A8128960FB6F89467
:10546000DEBF0FBECDBFCF91DF910895DF93CF9305
:1054700000D00F92CDB7DEB79B838A830FB6F89426
:105480000F92EA81FB81828D89830F900FBE898103
:105490000F900F900F90CF91DF910895DF93CF93EE
:1054A00000D00F92CDB7DEB79B838A83EA81FB8160
:1054B000828D898389810F900F900F90CF91DF911A
:1054C0000895DF93CF9300D0CDB7DEB79A83898359
:1054D000E981FA81808191810E94602389819A818A
:1054E0000E9460230F900F90CF91DF910895DF937A
:1054F000CF9300D000D00F92CDB7DEB79A838983C7
:105500007C836B834D83E981FA81848D882309F440
:1055100074C08D81882399F5E981FA816481758150
:10552000E981FA81848D482F50E02B813C81CB01A9
:10553000B9010E948033E981FA8124813581E981B2
:10554000FA81848D882F90E0820F931FE981FA8180
:1055500095838483E981FA8124813581E981FA8107
:10556000828193812817390708F447C0E981FA81BD
:1055700080819181E981FA81958384833EC0E981AC
:10558000FA8166817781E981FA81848D482F50E024
:105590002B813C81CB01B9010E948033E981FA81E2
:1055A00026813781E981FA81848D882F90E090955A
:1055B00081959F4F820F931FE981FA81978386839C
:1055C000E981FA8126813781E981FA81808191819F
:1055D0002817390790F4E981FA8122813381E98122
:1055E000FA81848D882F90E0909581959F4F820F4E
:1055F000931FE981FA8197838683E981FA81828DFD
:105600008F5FE981FA81828F0F900F900F900F903A
:105610000F90CF91DF910895DF93CF9300D000D00A
:10562000CDB7DEB79A8389837C836B83E981FA8166
:1056300080819181009789F1E981FA812681378102
:10564000E981FA81848D882F90E0820F931FE98190
:10565000FA8197838683E981FA8126813781E981FE
:10566000FA81828193812817390740F0E981FA8114
:1056700080819181E981FA8197838683E981FA812A
:1056800046815781E981FA81848D282F30E08B8112
:105690009C81BA01A9010E9480330F900F900F9056
:1056A0000F90CF91DF910895DF93CF9300D0CDB7C6
:1056B000DEB79A8389830FB6F8940F9215C0E981FB
:1056C000FA8181898823A9F089819A8141960E9473
:1056D0008C30882311F00E946A31E981FA81868D2D
:1056E0008150E981FA81868FE981FA81868D1816C9
:1056F00034F3E981FA818FEF868F0F900FBE0FB6DA
:10570000F8940F9215C0E981FA8180858823A9F069
:1057100089819A8108960E948C30882311F00E941A
:105720006A31E981FA81858D8150E981FA81858F1D
:10573000E981FA81858D181634F3E981FA818FEFBA
:10574000858F0F900FBE0F900F90CF91DF9108952E
:10575000DF93CF9300D00F92CDB7DEB79B838A83C0
:105760000FB6F8940F92EA81FB81828D198288230B
:1057700011F481E089830F900FBE89810F900F9003
:105780000F90CF91DF910895DF93CF9300D00F92C8
:10579000CDB7DEB79B838A83EA81FB81828D198234
:1057A000882311F481E0898389810F900F900F90F5
:1057B000CF91DF910895DF93CF9300D00F92CDB7B3
:1057C000DEB79B838A830FB6F8940F92EA81FB8140
:1057D000928DEA81FB81838D1982981711F481E003
:1057E00089830F900FBE89810F900F900F90CF91FA
:1057F000DF910895DF93CF9300D00F92CDB7DEB73E
:105800009B838A83EA81FB81928DEA81FB81838D70
:105810001982981711F481E0898389810F900F9084
:105820000F90CF91DF910895AF92BF92CF92DF9208
:10583000EF92FF920F931F93DF93CF93CDB7DEB715
:1058400064970FB6F894DEBF0FBECDBF9F838E83E3
:10585000798768875B874A873D872C870E87F88A18
:10586000EF86DA8AC98ABC8AAB8A8A859B852989B0
:105870003A89B9010E9499329C838B838B819C81E8
:10588000009709F499C0EB81FC812789308D8A85C6
:105890009B850197820F931F9A8389838B819C81BB
:1058A00028853985EB89FC89AA85BB85B9014E8598
:1058B0009F018D010E947E3189819A812E813F81D5
:1058C0004C855D85B9010E94C124EB81FC819183E7
:1058D00080838F859889009731F0EF85F8898B81D7
:1058E0009C81918380830FB6F8940F928091AC03D2
:1058F0008F5F8093AC038091A9039091AA030097D6
:1059000069F48B819C819093AA038093A903809171
:10591000AC038130A9F40E94D53112C08091B1034B
:10592000882371F4E091A903F091AA0396898E85EA
:10593000891730F08B819C819093AA038093A903EF
:10594000EB81FC8196898091AF03891728F4EB8164
:10595000FC8186898093AF038091B6038F5F80932B
:10596000B603EB81FC8196898091B003891728F4F6
:10597000EB81FC8186898093B003EB81FC81868971
:10598000282F30E0C901880F991F880F991F880FB1
:10599000991F820F931FAC0149545C4F8B819C81EE
:1059A0009C012E5F3F4FCA01B9010E94C02381E0D4
:1059B0008D830F900FBE02C08FEF8D838D8181305C
:1059C00071F48091B103882351F0E091A903F09123
:1059D000AA0396898E85981710F40E9480268D81DF
:1059E00064960FB6F894DEBF0FBECDBFCF91DF91A6
:1059F0001F910F91FF90EF90DF90CF90BF90AF90ED
:105A00000895DF93CF9300D000D000D0CDB7DEB79C
:105A10009C838B830FB6F8940F922091A903309149
:105A2000AA038B819C818217930711F41C821B822D
:105A30008B819C81009739F48091A9039091AA03EE
:105A40009E838D8304C08B819C819E838D838D81F9
:105A50009E819A83898389819A8102960E94782403
:105A6000E981FA8184899589009729F089819A8151
:105A70000C960E94782489819A819C012E5F3F4F69
:105A800087E294E0B9010E94C0238091AB038F5F4D
:105A90008093AB038091B6038F5F8093B6030F9022
:105AA0000FBE8091B103882331F08B819C810097D8
:105AB00011F40E94802626960FB6F894DEBF0FBE22
:105AC000CDBFCF91DF910895DF93CF93CDB7DEB7F0
:105AD00028970FB6F894DEBF0FBECDBF9E838D838F
