:100000000C942A000C94A4060C94CB060C94470084
:100010000C9447000C9447000C94E9050C94C80D0F
:100020000C9447000C9447000C9447000C94470034
:100030000C9447000C9447000C9447000C94470024
:100040000C9447000C9447000C9447000C94470014
:100050000C94470011241FBECFE5D8E0DEBFCDBF12
:1000600010E0A0E6B0E0E8EAFBE202C005900D92E5
:10007000A83FB107D9F714E0A8EFB0E001C01D9286
:10008000AC32B107E1F70E946F150C94D2150C94B5
:10009000000081E00E94920880E690E00E947F08C4
:1000A00088EB9BE00E945C13F4CF81E00E949208F1
:1000B0008CE690E00E947F0888EB9BE00E945C1336
:1000C000F4CFAF92BF92CF92DF92EF92FF920F9355
:1000D0000E94C10885E590E060E070E045E550E0F1
:1000E00020E030E003E0EE24FF24CC24DD24AA2429
:1000F000BB240E94451489E490E060E070E045E58F
:1001000050E020E030E004E00E9445140E944415D5
:100110000F91FF90EF90DF90CF90BF90AF90089538
:100120008091F8009091F90060E070E04AE050E0C2
:1001300020E00E94360F813099F70E94920888E7EC
:1001400090E00E947F0880E293E00E945C1380911F
:10015000F8009091F90060E070E040E050E020E0AD
:100160000E940210DDCF8091F8009091F90060E0CC
:1001700070E044EF51E020E00E94360F813099F7A3
:100180000E94920884E890E00E947F0880EB94E04F
:100190000E945C138091F8009091F90060E070E09B
:1001A00040E050E020E00E940210DDCFAF92BF920D
:1001B000CF92DF92EF92FF920F930E94C10881E0ED
:1001C00060E00E94A6109093F9008093F8000097D9
:1001D00039F060E070E040E050E020E00E94021062
:1001E00083EB90E060E070E045E550E020E030E037
:1001F00003E0EE24FF24CC24DD24AA24BB240E94A7
:10020000451480E990E060E070E045E550E020E0D2
:1002100030E00E9445140E9444150F91FF90EF902A
:10022000DF90CF90BF90AF90089580E061E00E9492
:10023000250841E0482780E061E00E94AF0788EE92
:1002400093E00E945C13F1CF1F9311E080E060E027
:100250000E942508482F412780E060E00E94AF07F8
:1002600088EC90E00E945C13F1CF80E060E041E018
:100270000E94280780E061E041E00E94280780E0BA
:1002800060E041E00E94AF0780E061E041E00E9451
:10029000AF070895AF92BF92CF92DF92EF92FF9295
:1002A0000F930E94350184E291E060E070E046E443
:1002B00050E020E030E002E0EE24FF24CC24DD24F6
:1002C000AA24BB240E94451485E191E060E070E01F
:1002D00046E450E020E030E00E9445140E944415BE
:1002E0000F91FF90EF90DF90CF90BF90AF90089567
:1002F0000F931F93DF93CF930F92CDB7DEB78E018D
:100300000F5F1F4F0E94A309898380538A3050F4E6
:100310008091280490912904B8014FEF50E020E02B
:100320000E94021082E390E00E945C13EBCFEF92F8
:10033000FF921F93DF93CF930F92CDB7DEB78FEF6E
:10034000898310E07E010894E11CF11C14C08091A7
:10035000280490912904B7014FEF50E020E00E945B
:10036000360F89818F3F31F00E94590888EE93E063
:100370000E945C131F5F163050F381E00E949208C8
:1003800010E0E5CFAF92BF92CF92DF92EF92FF9253
:100390000F930E94C1080E94FE0981E061E00E9463
:1003A000A610909329048093280487E991E060E0E7
:1003B00070E045E550E020E030E003E0EE24FF246B
:1003C000CC24DD24AA24BB240E94451488E791E0B4
:1003D00060E070E045E550E020E030E00E94451428
:1003E0000E9444150F91FF90EF90DF90CF90BF9047
:1003F000AF9008958091FA009091FB0060E070E06A
:1004000040E050E020E00E94CE0E08958091FA0076
:100410009091FB0060E070E04AE050E020E00E9434
:10042000360F813099F70E94920880E990E00E948F
:100430007F0884EF91E00E945C1381E00E949208A3
:10044000E5CF8091FA009091FB0060E070E04AE017
:1004500050E020E00E94360F80912A0490912B04F6
:100460000E94BF13089583E063E040E00E942807E4
:1004700083E063E041E00E94AF070E94FA060E9419
:10048000F2068AEF91E00E9411070895AF92BF92A1
:10049000CF92DF92EF92FF920F930E9433020E945D
:1004A000C10881E060E00E94A6109093FB00809359
:1004B000FA00009739F060E070E040E050E020E0A2
:1004C0000E94021086E092E060E070E046E450E0B6
:1004D00020E030E002E0EE24FF24CC24DD24AA2436
:1004E000BB240E94451481E292E060E070E046E4A3
:1004F00050E020E030E003E0EAE2EE2EE4E0FE2E01
:100500000E9445140E9444150F91FF90EF90DF90D8
:10051000CF90BF90AF9008950E94C10880E090E016
:1005200060E070E00E94B80882EA90E00E947F08D4
:1005300080E090E06DE070E00E94B8088AEA90E008
:100540000E947F0881E090E061E070E00E94B808BE
:100550008DEA90E00E947F0881E090E06DE070E01D
:100560000E94B80885EB90E00E947F0881E063E07C
:1005700041E00E9428070E949A058FE70E94B0057B
:1005800083E062E040E00E9428070E949A0689E02A
:1005900093E00E940B070E94F2068091FC008330DA
:1005A000B9F52091FD003091FE006091FF0070913F
:1005B0000001620F731F709302016093010184E6D2
:1005C00090E0AC01249FC001259F900D349F900DB9
:1005D00011240E949F15709304016093030180E031
:1005E00090E068E070E00E94B8088091010190916D
:1005F00002010E94E00881E090E068E070E00E9463
:10060000B80880910301909104010E94E008FFCF97
:10061000FFCF8091FC00882351F40E94B20585B77A
:100620008E7F85BF85B7826085BF81E011C0813034
:1006300091F40E94C9059093FE008093FD000E94F2
:10064000B20585B78D7F85BF85B7816085BF82E0A4
:100650008093FC000895823049F40E94C90590936C
:1006600000018093FF0083E08093FC00089580E008
:1006700060E040E00E94280783E06FEF0E941707C8
:100680000E9445080E94C10880E00E944D0890E049
:10069000A0E0B0E0BC01CD0128E833E140E050E04B
:1006A0000E947415DC01CB01892F9A2FAB2FBB2739
:1006B0006AE070E00E949F15862F0E94590887EB20
:1006C00090E00E947F08FFCF80E061E041E00E945F
:1006D000AF0780E197E228EC30E0F9013197F1F7BC
:1006E0000197D9F780E061E040E00E94AF070895EC
:1006F00080E060E041E00E94AF0780E197E228ECF3
:1007000030E0F9013197F1F70197D9F780E060E027
:1007100040E00E94AF07089583E062E040E00E945D
:10072000280783E062E041E00E94AF0780E061E0DB
:1007300041E00E94280783E063E040E00E94280730
:1007400083E063E041E00E94AF0780E060E041E0C9
:100750000E9428070E949A060E94FA060E94F2064A
:1007600088E793E00E940B0784E693E00E9411075C
:10077000FFCF0E945C0A89EB90E00E94480A0E9429
:100780002B0A08951F93CF93DF930E94C1080E9404
:10079000FE09C8ECD0E080E090E060E070E00E94EC
:1007A000B8088BEB90E00E947F0880E197E2FE01A1
:1007B0003197F1F70197D9F781E00E9492080E94E2
:1007C000A309182F8823D9F380E090E060E070E05F
:1007D0000E94B80888EC90E00E947F0881E090E0D9
:1007E00066E070E00E94B808812F0E94590880E2FC
:1007F0009EE4FE013197F1F70197D9F781E00E945D
:100800009208C9CF81E060E041E00E94280781E0C2
:1008100060E041E00E94AF070E949A0585E194E004
:100820000E94DD050E94F206FFCF809105019091A4
:100830000601019690930601809305018D3791057D
:1008400071F481E060E00E94250841E0482781E0E2
:1008500060E00E94AF071092060110920501089512
:100860001F93CF93DF9381E065E04FEF0E9428074D
:1008700081E066E040E00E94280781E067E041E017
:100880000E94280781E064E041E00E94280781E09F
:1008900064E041E00E94AF0780E060E041E00E9438
:1008A00028070E94F30581E064E040E00E94AF0762
:1008B00010E3C8ECD0E0812F0E94FC0520E137E274
:1008C000FE013197F1F721503040D1F71F5F1A3305
:1008D00091F7813429F480E060E041E00E94AF07A5
:1008E000FFCF83E060E040E00E94280783E061E002
:1008F00041E00E94280780E060E041E00E94280774
:100900000E948A050E949605813321F480E060E010
:1009100041E005C0823329F480E060E040E00E94BD
:10092000AF0784E490E00E949205ECCF80E060E0A5
:1009300041E00E94280780E060E041E00E94AF07AC
:1009400080E197E228EC30E0F9013197F1F7019767
:10095000D9F780E060E040E00E94AF070E94780590
:1009600086E00E948305FFCFAF92BF92CF92DF92C5
:10097000EF92FF920F931F93DF93CF93CDB7DEB724
:1009800028970FB6F894DEBF0FBECDBF80E06FEFA3
:100990000E94170780E060E00E949E07DE0111962A
:1009A000EFEEF0E088E001900D928150E1F710E069
:1009B00098ECE92EF12C88E0A82EB12CAC0EBD1ECF
:1009C0006E010894C11CD11C12C0E12FFF27E7FD66
:1009D000F095EC0DFD1D80E060810E949E0780E196
:1009E00097E2F7013197F1F70197D9F71F5F1830B8
:1009F00064F380E060E00E949E0780E197E2F701E7
:100A00003197F1F70197D9F7850180E0F80160810E
:100A10000E949E0780E197E2F7013197F1F7019775
:100A2000D9F7015010400C171D0779F780E060E0FE
:100A30000E949E0780E197E2F7013197F1F7019755
:100A4000D9F710E0C2CFCF93DF9380E060E041E0C0
:100A50000E94280720E0C8ECD0E008C080E197E2BF
:100A6000FE013197F1F70197D9F72F5F2B30B0F3E3
:100A700080E060E041E00E94AF0780E060E040E09D
:100A80000E94AF0780E197E2FE013197F1F70197ED
:100A9000D9F720E0E3CF0E94C10888E40E945908FA
:100AA00085E40E9459088CE40E9459088CE40E9455
:100AB00059088FE60E94590882E30E94590880E392
:100AC0000E94590882E30E94590882E30E94590853
:100AD00083E20E94590880E197E228EC30E0F901B6
:100AE0003197F1F70197D9F781E00E9492080895B4
:100AF00081B5886081BD089581B5886181BD81B56A
:100B0000877F81BD089591B5987F91BD91B5982B50
:100B100091BD0895529886E880BD83E389B9549ABF
:100B2000539A08955D9BFECF8CB908955F9BFECFCD
:100B30008CB1089583B7886083BF83B7806483BF17
:100B400083B7846083BF83B78D7F83BF83B78160A2
:100B500083BF83B7806283BF83B7806183BF0895FB
:100B60008CBF08958EB581608EBD8EB582608EBDBE
:100B70008FB58E7F8FBD8FB58D7F8FBD8EB5877FF3
:100B80008EBD8EB58F7E8EBD1CBC1DBC0895089594
:100B900008959CB58DB5382F20E0290F311DC9016E
:100BA000089589B7806289BF08950895813011F44E
:100BB00080E00895811181E0089520E0892B09F4F7
:100BC00021E0822F089520E0892B09F421E0822F73
:100BD00008951F920F920FB60F9211240F900FBE1F
:100BE0000F901F9018956C9A6E9A7098699A689AEF
:100BF00008956C986E9A08958FB9779BFECF8FB148
:100C00000895982F82E080B908980998911192B9B7
:100C100086B7846086BF089582B986B7846086BF30
:100C2000089586B7806886BF86B7806286BF86B71C
:100C3000846086BF06B607FEFDCF81B1887F88300D
:100C400011F480E0089581B1887F089586B78062AD
:100C500086BF86B7806886BF86B78F7E86BF86B719
:100C6000846086BF06B607FEFDCF80E008958E7FC4
:100C700083B986B7806886BF86B78F7D86BF86B703
:100C8000846086BF06B607FEFDCF81B1887F8831BC
:100C900011F480E0089581B1887F089590E0880F75
:100CA000991F83B986B7806886BF86B78F7D86BF58
:100CB00086B7846086BF06B607FEFDCF81B1887F08
:100CC000803411F480E0089581B1887F089583B95C
:100CD00086B7806886BF86B7846086BF06B607FE83
:100CE000FDCF81B1887F883211F480E0089581B111
:100CF000887F0895FC0186B7806886BF86B78460C8
:100D000086BF06B607FEFDCF81B1887F803511F41E
:100D100090E002C091B1987F83B18083892F0895BC
:100D200086B7806886BF86B7806186BF86B78460D5
:100D300086BF08958BB780648BBF85B78E7F85BFD4
:100D400085B7826085BF08951F920F920FB60F92EC
:100D500011242F933F934F935F936F937F938F93C0
:100D60009F93AF93BF93EF93FF93E0910901F091AD
:100D70000A010995FF91EF91BF91AF919F918F91DA
:100D80007F916F915F914F913F912F910F900FBE87
:100D90000F901F9018951F920F920FB60F9211246B
:100DA0002F933F934F935F936F937F938F939F9373
:100DB000AF93BF93EF93FF93E0910B01F0910C0180
:100DC0000995FF91EF91BF91AF919F918F917F9185
:100DD0006F915F914F913F912F910F900FBE0F90A8
:100DE0001F9018958FB780688FBF08958FB78F7742
:100DF0008FBF089585B7846085BF85B7886085BF3C
:100E00008BB780688BBF089584B7806484BF8BB72D
:100E100080628BBF089590930A018093090181E05D
:100E2000089590930C0180930B0181E00895813027
:100E300049F0813028F0823039F0833041F406C027
:100E40006ABB089567BB089564BB089561BB0895AC
:100E5000683008F072C04423D1F58130A1F08130B0
:100E600030F08230E1F0833009F067C024C02AB34B
:100E700081E090E002C0880F991F6A95E2F78095A3
:100E800082238ABB089527B381E090E002C0880FD7
:100E9000991F6A95E2F78095822387BB089524B352
:100EA00081E090E002C0880F991F6A95E2F7809573
:100EB000822384BB089521B381E090E002C0880FB3
:100EC000991F6A95E2F78095822381BB089541308E
:100ED000A1F5813091F0813028F08230C9F0833063
:100EE00061F521C02AB381E090E002C0880F991F0C
:100EF0006A95E2F7282B2ABB089527B381E090E09A
:100F000002C0880F991F6A95E2F7282B27BB089526
:100F100024B381E090E002C0880F991F6A95E2F740
:100F2000282B24BB089521B381E090E002C0880FF4
:100F3000991F6A95E2F7282B21BB0895813049F06B
:100F4000813028F0823039F0833041F406C06BBB29
:100F5000089568BB089565BB089562BB0895683025
:100F600008F072C04423D1F58130A1F0813030F017
:100F70008230E1F0833009F067C024C02BB381E0F8
:100F800090E002C0880F991F6A95E2F7809582234E
:100F90008BBB089528B381E090E002C0880F991FB1
:100FA0006A95E2F78095822388BB089525B381E096
:100FB00090E002C0880F991F6A95E2F7809582231E
:100FC00085BB089522B381E090E002C0880F991F8D
:100FD0006A95E2F78095822382BB08954130A1F59E
:100FE000813091F0813028F08230C9F0833061F592
:100FF00021C02BB381E090E002C0880F991F6A9551
:10100000E2F7282B2BBB089528B381E090E002C0C3
:10101000880F991F6A95E2F7282B28BB089525B3FE
:1010200081E090E002C0880F991F6A95E2F7282BB3
:1010300025BB089522B381E090E002C0880F991F7C
:101040006A95E2F7282B22BB0895813051F0813058
:1010500030F0823041F0833079F080E0089589B338
:1010600003C086B301C083B390E002C09595879515
:101070006A95E2F78170089580B390E002C095957B
:1010800087956A95E2F7817008953F9A3E983D9A58
:10109000309A319A329A379A089597B1907E97B9DB
:1010A00097B1982B97B9369A349BFECF349A85B175
:1010B00008950F931F93182F83E060E041E00E9492
:1010C000AF0783E061E040E00E94AF0780E0612F5E
:1010D0000E949E0783E062E041E00E94AF0700EAC1
:1010E0001FE0C8010197F1F783E062E040E00E9451
:1010F000AF07C8010197F1F71F910F9108951F9352
:10110000CF93DF93EC0110E003C00E9459081F5FEA
:10111000FE01E10FF11D80818823B9F7DF91CF91A6
:101120001F9108950F931F93182F83E060E040E014
:101130000E94AF0783E061E040E00E94AF0780E0DB
:10114000612F0E949E0783E062E041E00E94AF07AA
:1011500000EA1FE0C8010197F1F783E062E040E098
:101160000E94AF07C8010197F1F71F910F910895F1
:10117000662319F0613009F4805C80580E9492085F
:10118000089583E06FEF0E94170780E06FEF0E94E1
:1011900017078EE591E028EC30E0F9013197F1F77F
:1011A0000197D9F788E30E9492088FE00E94920885
:1011B00081E00E94920880EA9FE00197F1F708958C
:1011C000EF92FF920F931F93CF93DF93EC0127E2EF
:1011D0008031920768F160E177E20E949F15062F47
:1011E000862F805D0E94590810E080E197E29C0103
:1011F000029FC001039F900D129F900D11247E014C
:10120000E81AF90AC70168EE73E00E949F15062FDD
:10121000862F805D0E94590810E088EE93E09C01C3
:10122000029FC001039F900D129F900D112419C0C1
:1012300033E0883E930778F168EE73E00E949F15D3
:10124000062F862F805D0E94590810E088EE93E0FB
:101250009C01029FC001039F900D129F900D1124CD
:101260007E01E81AF90AC70164E670E00E949F1542
:10127000062F862F805D0E94590810E08CE99FEFB1
:101280009801289F8001299F100D389F100D11246F
:101290000E0D1F1D19C08436910540F164E670E003
:1012A0000E949F15062F862F805D0E94590810E02E
:1012B0008CE99FEF9801289F8001299F100D389F8E
:1012C000100D11240C0F1D1FC8016AE070E00E9470
:1012D0009F15162F862F805D0E945908005D86EFAE
:1012E0009FEF189F602D1124862F12C08A30910520
:1012F00088F0082F6AE00E949315182F805D0E94E5
:101300005908005D86EF9FEF189F102D1124812F43
:10131000800F03C09C01205D822F0E945908DF913D
:10132000CF911F910F91FF90EF900895CF93DF938E
:10133000EC0103C00E945908219688818823D1F7C7
:10134000DF91CF910895CF92DF92FF920F931F9379
:10135000CF93DF930FEFC0E0D0E090E4C92E9CE97B
:10136000D92EFC2E81E06C2F40E00E94AF0781E077
:1013700064E00E942508882311F414E017C081E07E
:1013800065E00E942508882311F415E00FC081E074
:1013900066E00E942508882311F416E007C081E06A
:1013A00067E00E9425088823B1F417E0E12FF0E000
:1013B0003497EE0FFF1FEE0FFF1FEC0FFD1FE352E0
:1013C000FF4F008181E0612F0E9425088823D1F31F
:1013D000C6010197F1F781E06F2D41E00E94AF0750
:1013E0002196C430D10509F0BCCF802FDF91CF9179
:1013F0001F910F91FF90DF90CF90089581E060E002
:1014000041E00E94280781E061E041E00E94280756
:1014100081E062E041E00E94280781E063E041E072
:101420000E94280781E064E040E00E94280781E0F4
:1014300065E040E00E94280781E066E040E00E940D
:10144000280781E067E040E00E94280781E06FEF15
:101450000E949E070895DF93CF930F92CDB7DEB71A
:101460000E94110680EA0E94370680E00E9467060B
:101470000E94260681EA0E946706CE0101960E941C
:101480007A060E94900689810F90CF91DF9108958E
:101490000F931F938C010E94110680EA0E94370669
:1014A00080E00E946706F80180810E9467060E9422
:1014B00090061F910F91089584EA0E9401060895F5
:1014C000EF92FF920F931F93FC010580F681E02DB0
:1014D000E680F7808701045F1F4FC8010E94C70C98
:1014E0008EE391E0B8010E94690C20E0E0910D01CB
:1014F000F0910E01D70156969C918689981708F0B5
:1015000021E0822F1F910F91FF90EF900895FF929D
:101510000F931F93CF93DF9399E0F92E21C0F89496
:10152000E0914301F091440106811781C8010C96B6
:101530000E94C70C7894E8012296CE010E94C70C45
:10154000F801968980910F01891710F490930F018B
:101550009F9DC00111248A5E9E4FBE010E94690CAE
:1015600080913E018823D9F60E940B112091100131
:1015700030911101821B930B909313018093120100
:1015800089E0F82E53C001969093150180931401C1
:10159000215030403093130120931201892B09F020
:1015A0003EC020913A0130913B0180913C019091E5
:1015B0003D0190933B0180933A0130933D0120938C
:1015C0003C012DC00580F681E02DC681D781209198
:1015D0001401309115018A819B812817390730F158
:1015E000F8948E010E5F1F4FC8010E94C70C8C89B2
:1015F0009D89892B21F0CE010C960E94C70C78940E
:101600009E8980910F01891710F490930F019F9D7F
:10161000C00111248A5E9E4FB8010E94690CE091BE
:101620003A01F0913B018081882361F620911201FB
:10163000309113018091140190911501211531050C
:1016400009F0A1CF909311018093100190910F01A7
:1016500029E006C0992319F410920F0132C091506D
:10166000929FD0011124AA5EBE4F8C91882391F3E2
:1016700090930F011196ED91FC9112970280F381E6
:10168000E02D1296FC93EE931197CD010396E81787
:10169000F90731F48281938112969C938E9311976E
:1016A0001196ED91FC9112970680F781E02DF09351
:1016B0000E01E0930D0120813181CF016789F9018D
:1016C0000995DF91CF911F910F91FF9008950F938E
:1016D0001F93CF93DF93EB0100911401109115013B
:1016E000080F191F80910D0190910E0102960E9422
:1016F000C70CE0910D01F0910E01138302838091DC
:10170000140190911501BF016E5F7F4F08171907F3
:1017100028F480913C0190913D0104C080913A01F0
:1017200090913B010E94920C209749F060910D012D
:1017300070910E01645F7F4FCE010E94920CDF9189
:10174000CF911F910F910895AF92BF92CF92DF92E8
:10175000EF92FF920F931F93CF93DF936C01B62EFE
:10176000A42E8AE190E00E942E0CEC01009711F467
:101770008FEF59C080910D0190910E01892B21F5B9
:10178000D0930E01C0930D0186E191E00E94550CAB
:101790008FE191E00E94550C28E2E22E21E0F22E2A
:1017A000C7010E94550C01E311E0C8010E94550CCD
:1017B0008EE391E00E94550CF0923B01E0923A01D9
:1017C00010933D0100933C01EB2CBB2011F0EE2463
:1017D000E394198E188EEE8AAF8AFE01C192D192DF
:1017E0008F01CF010E94650CCE010C960E94650C02
:1017F000D987C887DB8BCA8B89E090E08E19910965
:101800009D878C879E8980910F01891710F4909392
:101810000F0189E0989FC00111248A5E9E4FB80194
:101820000E94690C81E0DF91CF911F910F91FF9091
:10183000EF90DF90CF90BF90AF90089508951092F1
:10184000480110924701089528E532E08091470150
:1018500090914801281B390BC90108950F931F93DC
:10186000CF93DF938C010E940511809147019091E5
:1018700048019801280F391F42E02835340758F4F1
:101880008217930740F4EC01C75BDE4F30934801A9
:101890002093470102C0C0E0D0E00E94E112CE01D7
:1018A000DF91CF911F910F910895FC019C012D5F55
:1018B0003F4F328321838FEF9FEF9483838336835F
:1018C00025833087278310820895FC0111861086B6
:1018D0000895CF93DF93AC01DB01EC0129813A81BC
:1018E000F9018281938113969C938E93129789813B
:1018F0009A8115969C938E9314970280F381E02D24
:1019000075836483E9017B836A83FA01728361834F
:1019100019965C934E93189780818F5F8083DF9137
:10192000CF910895CF93DF939C01EB0148815981BA
:101930008FEF4F3F580721F4F901A781B08510C000
:10194000D901139604C012960D90BC91A02D129649
:10195000ED91FC911397808191814817590798F771
:101960001296ED91FC911397FB83EA83D583C48390
:10197000BD83AC831396DC93CE9312973987288767
:10198000F90180818F5F8083DF91CF910895CF939C
:10199000DF93DC011296ED91FC91139714968D91D3
:1019A0009C911597958384831496CD91DC9115971E
:1019B000FB83EA831896ED91FC91199781819281BE
:1019C0008A179B0711F4D283C18319961C921E9229
:1019D0001897808181508083DF91CF910895FC0119
:1019E00091E1908322E2229383E382936293729344
:1019F000129280E88293129282E0829383E0829333
:101A000084E0829385E0829386E0829387E08293EC
:101A100088E0829389E0829380E18293929382E1CD
:101A2000829383E1829384E1829385E1829386E1CC
:101A3000829387E1829388E1829389E1829380E2B5
:101A4000829381E28293229383E282934293529320
:101A500086E2829387E2829388E2829389E282938C
:101A600080E3829381E382933197CF0108951BBC79
:101A70008CE78ABD8BE08EBD89B7806189BFA0915C
:101A8000A103B091A203CD91CDBFDD91DEBFFF9147
:101A9000EF91DF91CF91BF91AF919F918F917F9106
:101AA0006F915F914F913F912F911F910F91FF90F7
:101AB000EF90DF90CF90BF90AF909F908F907F90EE
:101AC0006F905F904F903F902F901F900F900FBEA0
:101AD0000F90089581E0089508950F920FB6F8943D
:101AE0000F921F9211242F923F924F925F926F920A
:101AF0007F928F929F92AF92BF92CF92DF92EF929E
:101B0000FF920F931F932F933F934F935F936F9386
:101B10007F938F939F93AF93BF93CF93DF93EF9375
:101B2000FF93A091A103B091A2030DB60D920EB642
:101B30000D920E94E9110E941F11A091A103B09182
:101B4000A203CD91CDBFDD91DEBFFF91EF91DF917B
:101B5000CF91BF91AF919F918F917F916F915F9145
:101B60004F913F912F911F910F91FF90EF90DF9038
:101B7000CF90BF90AF909F908F907F906F905F902D
:101B80004F903F902F901F900F900FBE0F90089591
:101B90000E946D0D18950F920FB6F8940F921F9238
:101BA00011242F923F924F925F926F927F928F9269
:101BB0009F92AF92BF92CF92DF92EF92FF920F93DC
:101BC0001F932F933F934F935F936F937F938F93C5
:101BD0009F93AF93BF93CF93DF93EF93FF93A09126
:101BE000A103B091A2030DB60D920EB60D920E9404
:101BF0001F11A091A103B091A203CD91CDBFDD91A2
:101C0000DEBFFF91EF91DF91CF91BF91AF919F9197
:101C10008F917F916F915F914F913F912F911F9184
:101C20000F91FF90EF90DF90CF90BF90AF909F907B
:101C30008F907F906F905F904F903F902F901F906C
:101C40000F900FBE0F900895FC010FB6F8940F92FD
:101C5000828D0F900FBE0895FC01828D0895FC01C6
:101C6000828D90E0882309F491E0892F0895FC018A
:101C7000928D20E0838D981709F421E0822F08953A
:101C80000F931F938C01FC01808191810E941E0C97
:101C9000C8010E941E0C1F910F9108950F931F936E
:101CA000CF93DF93EC01FB018A018A8D882381F1B8
:101CB0004881598141155105A9F08C8D2E813F81B4
:101CC000280F311D3F832E838A819B812817390776
:101CD00010F05F834E834C8D6E817F81CF0150E089
:101CE0000E94B3158A8D81508A8F8D8D8F3F69F444
:101CF0008885882361F0CE0108960E94AA11882366
:101D000031F081E0F801808303C08F5F8D8F81E027
:101D1000DF91CF911F910F910895CF93DF93EC0145
:101D2000842F4C8D4423A1F18823B1F48C819D81B3
:101D300050E00E94B3158C8D2C813D81280F311D00
:101D40003D832C838A819B812817390708F188817C
:101D500099819D838C831CC08E819F8150E00E945D
:101D6000B3158C8D90E044275527481B590B8E8165
:101D70009F81840F951F9F838E83288139818217CD
:101D8000930730F48A819B81840F951F9F838E83F4
:101D90008A8D8F5F8A8FDF91CF9108950F931F9364
:101DA000CF93DF93EC018A019A8D8B8D981710F0F9
:101DB00080E017C0CE01422F0E948D0E8E8D8F3F86
:101DC00069F48989882361F0CE0141960E94AA11A5
:101DD000882331F081E0F801808303C08F5F8E8F0C
:101DE00081E0DF91CF911F910F9108950F931F9381
:101DF000CF93DF93EC010FB6F8940F928C010F5E36
:101E00001F4F0DC08989882369F0C8010E94AA115B
:101E1000882311F00E94A6118E8D81508E8F8E8D99
:101E2000181684F38FEF8E8F0F900FBE0FB6F894B5
:101E30000F928E01085F1F4F0DC08885882369F0BF
:101E4000C8010E94AA11882311F00E94A6118D8D4D
:101E500081508D8F8D8D181684F38FEF8D8F0F909D
:101E60000FBEDF91CF911F910F9108957F928F92B6
:101E70009F92AF92BF92CF92DF92EF92FF920F9319
:101E80001F93DF93CF9300D000D00F92CDB7DEB772
:101E90008C01962E872E5D834C83722E91E1C92E84
:101EA000D12CC00ED11E20E07E010894E11CF11C53
:101EB00084E0A82EB12CAC0EBD1E01C021E00FB6EF
:101EC000F8940F92F801828D882309F43EC0E680D1
:101ED000F7804081518141155105B1F0848D970102
:101EE000280F311D37832683828193812817390774
:101EF00010F057834683F801448D66817781892DE0
:101F0000982D50E00E94B315772071F4F801828D6E
:101F10008150828F80858823A1F0C80108960E9495
:101F2000AA11813071F40BC0F801F782E682818931
:101F3000882339F0C6010E94AA11882311F00E945B
:101F4000CB0D0F900FBE81E04AC08C819D81892B03
:101F500019F40F900FBE42C0222319F4C7010E944A
:101F600061110F900FBE0E9405110FB6F8940F92E9
:101F7000F801858D8F3F09F4158EF801868D8F3F0E
:101F800009F4168E0F900FBEC701B5010E946C11A7
:101F90008823F9F40FB6F8940F92F801828D0F9010
:101FA0000FBE882381F46C817D81C6010E94C4121A
:101FB000C8010E94F60E0E94E112882309F07ECF2C
:101FC0000E94CB0D7BCFC8010E94F60E0E94E11249
:101FD00075CFC8010E94F60E0E94E11280E00F90BA
:101FE0000F900F900F900F90CF91DF911F910F9155
:101FF000FF90EF90DF90CF90BF90AF909F908F9029
:102000007F9008957F928F929F92AF92BF92CF92CE
:10201000DF92EF92FF920F931F93DF93CF9300D045
:1020200000D00F92CDB7DEB78C016B015D834C837E
:10203000722E48E0E42EF12CE80EF91E20E05E013D
:102040000894A11CB11C34E0832E912C8C0E9D1E93
:1020500001C021E00FB6F8940F92F801928D838DA4
:102060009817A8F4C801B601472D0E948D0EF801FB
:102070008189882341F0C80141960E94AA118130CC
:1020800011F40E94CB0D0F900FBE81E04CC08C81EB
:102090009D81892B19F40F900FBE44C0222319F49F
:1020A000C5010E9461110F900FBE0E9405110FB66D
:1020B000F8940F92F801858D8F3F09F4158EF80181
:1020C000868D8F3F09F4168E0F900FBEC501B401A7
:1020D0000E946C11882309F50FB6F8940F92F8014D
:1020E000928D0F900FBEF801838D981781F46C814B
:1020F0007D81C7010E94C412C8010E94F60E0E9491
:10210000E112882309F0A5CF0E94CB0DA2CFC80110
:102110000E94F60E0E94E1129CCFC8010E94F60EAA
:102120000E94E11280E00F900F900F900F900F909F
:10213000CF91DF911F910F91FF90EF90DF90CF90A3
:10214000BF90AF909F908F907F900895AF92BF9275
:10215000CF92DF92EF92FF920F931F93CF93DF9373
:10216000B82EA62E882309F442C08FE190E00E9489
:102170002E0CEC010097D9F1EB2CFF24CA2CDD24A6
:10218000CE9C8001CF9C100DDE9C100D1124C80147
:1021900001960E942E0C9C0199838883009721F15F
:1021A000080F191F1B830A831A8E9D838C83089442
:1021B000E108F108EC9CC001ED9C900DFC9C900D99
:1021C0001124280F391F3F832E83BB8EAC8E8FEFD7
:1021D0008D8F8E8FCE0108960E94550CCE014196B0
:1021E0000E94550C9E0105C0CE010E941E0C20E0ED
:1021F00030E0C901DF91CF911F910F91FF90EF90D7
:10220000DF90CF90BF90AF9008958091A7038F5F2C
:102210008093A70308950FB6F8940F922091A50319
:102220003091A6030F900FBEC90108952091A50318
:102230003091A603C90108958091AA030895809161
:10224000A703882351F081E08093A3030895809130
:10225000A80381508093A80301C099E0E091A803EE
:10226000E99FF0011124E155FC4F8081882379F327
:102270009091A80389E0989FD0011124A155BC4FEB
:102280001196ED91FC9112970280F381E02D129648
:10229000FC93EE931197CD010396E817F90731F4FB
:1022A0008281938112969C938E9311971196ED9152
:1022B000FC911297868197819093A2038093A1034A
:1022C0000895FC018091A40380838091A5039091DF
:1022D000A603928381830895FC01DB010FB6F89475
:1022E0000F929091A4038081981749F02091A50343
:1022F0003091A603818192812817390718F58091C2
:10230000A5039091A603218132814D915C91119793
:10231000821B930B84179507A8F48091A5039091D5
:10232000A603281B390B240F351F2D933C93809156
:10233000A40380838091A5039091A6039283818357
:1023400080E001C081E00F900FBE089581E080938E
:10235000A30308950F931F93CF93DF93FC01058090
:10236000F681E02D06811781E8012C96CE010E94AE
:10237000C70C8091A7038823A9F4E8012296CE0117
:102380000E94C70CD80156969C918091A80389178A
:1023900010F49093A80389E0989FC00111248155FF
:1023A0009C4F02C086E194E0BE010E94690CE0915E
:1023B000A103F091A20320E0D80156969C91868952
:1023C000981708F021E0822FDF91CF911F910F9194
:1023D0000895FF920F931F93CF93DF938091A703EC
:1023E000882309F08FC08091A5039091A6030196E0
:1023F0009093A6038093A5038091A5039091A603D3
:10240000892B79F5209112043091130480911404E2
:102410009091150490931304809312043093150443
:10242000209314048091A4038F5F8093A403E09110
:102430001204F09113048081882319F48FEF9FEF29
:102440000CC0E0911204F09113040580F681E02D98
:102450000680F781E02D828193819093EE00809336
:10246000ED002091A5033091A6038091ED0090919D
:10247000EE002817390708F44AC089E0F82EE091E9
:102480001204F09113048081882339F48FEF9FEFB9
:102490009093EE008093ED003AC0E0911204F09129
:1024A00013040580F681E02DC681D7812A813B8106
:1024B0008091A5039091A6038217930728F4309387
:1024C000EE002093ED0023C08E010E5F1F4FC80168
:1024D0000E94C70C8C899D89892B21F0CE010C9616
:1024E0000E94C70C9E898091A803891710F49093CD
:1024F000A8039F9DC001112481559C4FB8010E94E3
:10250000690CBDCF8091A9038F5F8093A903DF91F0
:10251000CF911F910F91FF900895CF93DF93EC011E
:10252000E091A103F091A203938382838091A5039C
:102530009091A603C817D90768F48091140490916C
:1025400015046091A1037091A2036E5F7F4F0E94FA
:10255000920C17C080911204909113046091A10312
:102560007091A2036E5F7F4F0E94920C8091ED00EC
:102570009091EE00C817D90720F4D093EE00C093D5
:10258000ED00DF91CF9108950F931F938B01609120
:10259000A1037091A203645F7F4F0E94920C80910F
:1025A000A1039091A20302960E94C70C8091A503FB
:1025B0009091A603800F911F0E948D121F910F9181
:1025C0000895CF92DF92FF920F931F93DF93CF93E3
:1025D0000F92CDB7DEB70FB6F8940F928091A70394
:1025E00081508093A7038091A703882309F058C0E6
:1025F0008091AA03882309F453C0198299E0F92E27
:102600002DC0E0911B04F0911C04C680D780C60148
:102610000C960E94C70C86010E5F1F4FC8010E94D6
:10262000C70CD60156969C918091A803891710F487
:102630009093A8039F9DC001112481559C4FB80120
:102640000E94690CE091A103F091A203D601569675
:102650009C918689981710F0B1E0B9838091160497
:10266000882379F68091A903882341F40CC00E9445
:10267000E9118091A90381508093A9038091A90356
:102680008823A9F707C0E981E13021F08091A303F5
:10269000813031F41092A3030E94CB0D81E001C080
:1026A00080E00F900FBE0F90CF91DF911F910F919F
:1026B000FF90DF90CF9008950F931F93CF93DF93F8
:1026C000EC010097C9F08091A7038F5F8093A70367
:1026D0000091A5031091A6038091A1039091A203FC
:1026E00002960E94C70CCE01800F911F0E948D128E
:1026F0000E94E112882311F40E94CB0DDF91CF914B
:102700001F910F910895CF93DF93FC01EB0180910E
:10271000A7038F5F8093A70320813181C20FD31F4E
:102720008091A5039091A6038217930728F4C217FE
:10273000D30728F020E00CC0C217D30740F08091E7
:10274000A5039091A60320E08C179D0708F421E0D3
:10275000D183C083222351F08091A1039091A203E1
:1027600002960E94C70CCE010E948D120E94E112B7
:10277000882311F40E94CB0DDF91CF910895EF9241
:10278000FF920F931F93CF93DF938C010FB6F894B2
:102790000F928091A1039091A2030817190719F4D1
:1027A00000E010E003C00115110529F4C091A10358
:1027B000D091A20301C0E80122E0E22EF12CEC0E40
:1027C000FD1EC7010E94C70C8C899D89892B21F0B1
:1027D000CE010C960E94C70C8FE194E0B7010E94D5
:1027E000690C8091AC038F5F8093AC038091AD0343
:1027F0008F5F8093AD030F900FBE8091AB03882352
:1028000021F0012B11F40E94CB0DDF91CF911F918C
:102810000F91FF90EF900895F8941092AB030E94EF
:102820006C0D08950F931F938091AC038823E1F3FF
:102830008091A7038F5F8093A70310911F040E94CC
:10284000E112112389F30FB6F8940F92E09124045A
:10285000F091250406811781C80102960E94C70CD9
:102860008091AA0381508093AA038091AC03815088
:102870008093AC030F900FBEF8018789908D0E9462
:102880001E0CC8010E941E0CCFCF2F923F924F9278
:102890005F927F928F929F92AF92BF92CF92DF9280
:1028A000EF92FF920F931F93CF93DF931C014B0185
:1028B0005A012901702EE60181E290E00E942E0C5F
:1028C0006C01009771F0209721F4C5010E942E0C35
:1028D000EC01F601D08FC78B209729F4C6010E9426
:1028E0001E0C8FEFBFC0CE0165EA70E0A5010E940B
:1028F000BC150894A108B108F601C789D08DCA0D8E
:10290000DB1DC6014996B40148E050E00E94C315A2
:10291000F60110A2072DF8E0F71508F408E0F6011B
:10292000068B42E0A42EB12CAC0CBD1CC5010E944C
:10293000650CC6010C960E94650CF601D186C08616
:1029400089E090E0801B910995878487D38AC28AA9
:10295000CE01B101A2010E94EF0CF60191838083A8
:10296000E114F10419F0F701D182C0820FB6F89496
:102970000F928091AA038F5F8093AA038091A10395
:102980009091A203892B79F5D092A203C092A10362
:102990008091AA038130B1F5CFEAD3E0CE010E9445
:1029A000550C2996F4E0C030DF07C1F730E0E32E84
:1029B00034E0F32EC7010E94550C09E014E0C80171
:1029C0000E94550C86E194E00E94550C8FE194E042
:1029D0000E94550CF0921304E09212041093150417
:1029E000009314040FC08091AB03882359F4E09145
:1029F000A103F091A2038689781620F0D092A20359
:102A0000C092A103F60196898091AE03891710F454
:102A10009093AE038091AD038F5F8093AD03F60179
:102A200096898091A803891710F49093A803F60162
:102A3000868929E0829FC001112481559C4FB501F0
:102A40000E94690C0F900FBE8091AB03882349F060
:102A5000E091A103F091A2038689871510F40E94EA
:102A6000CB0D81E0DF91CF911F910F91FF90EF90FF
:102A7000DF90CF90BF90AF909F908F907F905F90AE
:102A80004F903F902F900895AF92BF92CF92DF92D8
:102A9000EF92FF920F9382E194E168ED70E045E5DB
:102AA00050E020E030E000E0EE24FF24CC24DD24E0
:102AB000AA24BB240E944514813049F4F8948093E1
:102AC000AB031092A6031092A5030E94370D0F913D
:102AD000FF90EF90DF90CF90BF90AF9008950E944D
:102AE000C20180E090E00895629FD001739FF001E1
:102AF000829FE00DF11D649FE00DF11D929FF00D8E
:102B0000839FF00D749FF00D659FF00D9927729FC4
:102B1000B00DE11DF91F639FB00DE11DF91FBD014F
:102B2000CF0111240895991B79E004C0991F9617CD
:102B300008F0961B881F7A95C9F780950895AA1BFF
:102B4000BB1B51E107C0AA1FBB1FA617B70710F098
:102B5000A61BB70B881F991F5A95A9F780959095CA
:102B6000BC01CD010895FB01DC0102C001900D9272
:102B700041505040D8F70895DC0101C06D93415099
:102B80005040E0F70895FB01DC014150504048F00F
:102B900001900D920020C9F701C01D924150504094
:082BA000E0F70895F894FFCF5F
:102BA8004920616D207461736B2032004920616D8A
:102BB800207461736B2031004920616D207461734A
:102BC8006B2032004920616D207461736B203100E5
:102BD800427574746F6E20697320507265737365E3
:102BE800640046726571203D2000487A004475747F
:102BF80079203D2000250063004800656E746572E9
:102C0800206E756D626572006E756D6265725F70BB
:102C18007265737365643D0049444C450037383923
:102C28002F3435362A3132332D44303D2BFFFF0106
:082C3800020408102040800096
:00000001FF
